:020000042000DA
:100000006F00001CFA050020FA050020A40600205D
:10001000FA050020FA050020FA050020E40B002074
:10002000FA050020FA050020FA050020FA05002054
:10003000FA050020FA050020FA050020FA05002044
:10004000FA050020FA050020FA050020FA05002034
:10005000FA05002000000000000000000000000081
:100060000000000000000000000000000000000090
:100070000000000000000000000000000000000080
:100080000000000000000000000000000000000070
:100090000000000000000000000000000000000060
:1000A0000000000000000000000000000000000050
:1000B0000000000000000000000000000000000040
:1000C000FA05002000000000000000000000000011
:1000D0000000000000000000000000000000000020
:1000E0000000000000000000000000000000000010
:1000F000FA050020FA050020FA050020FA05002084
:10010000FA050020FA050020FA050020FA05002073
:10011000FA050020FA050020FA050020FA05002063
:10012000FA050020FA050020FA050020FA05002053
:1001300000000000000000000000000000000000BF
:1001400000000000000000000000000000000000AF
:10015000000000000000000000000000000000009F
:10016000000000000000000000000000000000008F
:10017000000000000000000000000000000000007F
:10018000000000000000000000000000000000006F
:10019000000000000000000000000000000000005F
:1001A000000000000000000000000000000000004F
:1001B000000000000000000000000000000000003F
:1001C0007370043097110070938141C117E2007081
:1001D00013024216170104701301C1E293020020BA
:1001E00073A0027D970200009382C2E17390723087
:1001F00097020000938202397390C27E73E0C07E42
:100200009702000093820210739052309302F00321
:1002100073B0523073E05130996273B0023089622A
:1002200073A0023073F00232170500001305851128
:1002300097050000938505116300B50217060700B6
:100240001306867863FAC5008322050023A05500B3
:1002500011059105E3EAC5FE1705070013050577AB
:1002600097050070938505DA6300B50217E6007004
:100270001306460C63FAC5008322050023A055002F
:1002800011059105E3EAC5FE17E500701305850A1F
:1002900097F500709385056D6377B5002320050001
:1002A0001105E36DB5FEEF00D07917750100130558
:1002B000E572EF60817AEF70416CEF00107E97027B
:1002C000000093822224739052309302F00373B0A3
:1002D000523073E05130014581459D20EF10E0011F
:1002E00001A0130000001300000013000000130021
:1002F00000001300000013000000130000000100C4
:0803000073005010F5BF00006E
:10034000411106C6EF003056EF2020731DE9370536
:1003500002201305851FEF20A063392BEF202076A4
:10036000B705022037150020938585200147854673
:10037000130600201305E59BEF20C071EF204074A9
:1003800001A0AA85370502201305451EEF20406015
:10039000C5BF411122C417F400701304A44806C657
:1003A000A28797F600709386E64F7D5798C3A10702
:1003B000E39ED7FE8145171502001305E58BEFC0BC
:1003C000313B93173500A2979C4393051060171596
:1003D00002001305658A1CC097F7007023A6074426
:1003E000EFC0113993173500A2979C4393059020D5
:1003F00017150200130545881CC497F7007023A940
:100400000742EFC0F13693173500A2979C43B240E4
:1004100017F70070232207421CC822444101828042
:1004200035C9ADC901114AC837E90090832749335E
:1004300006CEBDE326CAB7E4009083C70433B9EF04
:1004400022CC4EC6232AA9322388B4320144930910
:10045000C00231A89C4385C3829705049377F40FAB
:100460001DE103C7043363F0E702032549337F1519
:1004700034C55C45E5F36244D244B2490945F240D3
:100480004249056182806244F240D244B249424905
:10049000056182800D4582807D55D5B7D2447D555A
:1004A000F9BFB7E7009083C787336379F500B7E7F3
:1004B000009083A7C73316053E9582800145828050
:1004C00019C95C459C5381C789C5054682871D456E
:1004D0008280094582807D558280000000000000F6
:1004E000000000000000000000000000000000000C
:1004F00000000000000000000000000000000000FC
:10050000731191345D7106C012C216C41AC61EC89A
:100510002ACA2ECC32CE36D03AD23ED442DC46DE87
:10052000F2C0F6C2FAC4FEC673D0E57E7350F67E02
:1005300073D0B67E732520348A85EF00B050D25236
:100540007390427CC25273901234B2527390223430
:1005500082401242A2423243C2435245E2457246B1
:1005600082561257A2576258F258064E964E264FA0
:10057000B64F6161731191347300203001000000A7
:10058000731191345D7106C012C216C41AC61EC81A
:100590002ACA2ECC32CE36D03AD23ED442DC46DE07
:1005A000F2C0F6C2FAC4FEC673D0E57E7350F67E82
:1005B00073D0B67EF390D07E73700430D2527390B5
:1005C000427CC25273901234B252739022348240F1
:1005D0001242A2423243C2435245E245724682561B
:1005E0001257A2576258F258064E964E264FB64FF3
:1005F0006161731191347300203001A01300000079
:1006000097020470938202A07390023417E1007085
:10061000032101D902418242739012341260A26018
:100620003261C2615262E262726382731274A274B6
:100630003275C2755276E276727786671668A6685A
:100640003669C669566AE66A766B867B167CA67C36
:10065000367DC67D567EE67E767F8A6F0961D652EC
:10066000739002309240A2423243C2435244E24469
:10067000724582551256A2563257C2575258E25806
:1006800072598649164AA64A364BC64B564CE64C1A
:10069000764D865D165EA65E365FC65F13018107E6
:1006A00073002030130181F806C216C41AC61EC892
:1006B00022CA26CC2ACE2ED032D236D43AD63ED832
:1006C00042DA46DC4ADECEC0D2C2D6C4DAC6DEC8C2
:1006D000E2CAE6CCEACEEED0F2D2F6D4FAD6FED812
:1006E000F322003096DA197102E206E40AE60EE817
:1006F00012EA16EC1AEE1EF022F226F42AF62EF872
:1007000032FA36FC3AFEBEE0C2E2C6E4CAE6CEE801
:10071000D2EAD6ECDAEEDEF0E2F2E6F4EAF6EEF851
:10072000F2FAF6FCFAFE7EE197E2007083A242C77D
:1007300023A02200F322103416C0EF00A04497E259
:10074000007083A2E2C503A10200824273901234BA
:100750001260A2603261C2615262E26272638273AD
:100760001274A2743275C2755276E2767277866719
:100770001668A6683669C669566AE66A766B867B2D
:10078000167CA67C367DC67D567EE67E767F8A6F99
:100790000961D652739002309240A2423243C24362
:1007A0005244E244724582551256A2563257C257FD
:1007B0005258E25872598649164AA64A364BC64BD9
:1007C000564CE64C764D865D165EA65E365FC65F7D
:1007D0001301810773002030010001458280370535
:1007E0000220130585FC828037050220130505FED3
:1007F0006F60716537050220130505006F60B164F5
:10080000370502201305C5016F60F163370502202B
:10081000130585026F60D16F011122CC06CE2A84A8
:1008200085C53705022013058503EF60D161B70741
:10083000904222859387B70F6C003EC6EFC0203FE1
:10084000F240624405618280370502201305850568
:10085000EF60116CE9BF370702204111AA87130529
:10086000470622C406C63E84EF60F15D228522441D
:10087000B24041016FC0005F0111014506CEEF108B
:1008800081445DE9B70502203705022093850509FB
:10089000300013058509EF10B14B2800EFE0701808
:1008A000B7060090138786085C433705022093E75C
:1008B00047001305C50A5CC3EF60F15837050220F5
:1008C0001305450CEF000166370600901305C602BC
:1008D000EFC0E055AA8537060090B706009031E1D9
:1008E000B715022013858608938585C70147814681
:1008F0000D46EFE0A05CAA8529E937050220130523
:100900004512EF6051543705009013058504EFC080
:10091000A00A3705022013058514B920F2400561AD
:100920008280370502201306C6021305050DEF600D
:100930009151F24005618280F240AA85370502207C
:100940001305050705616F60115037050220130577
:10095000C50FEF60514F45BF8280B7E70090938786
:10096000073421486F50B019797106D60328050065
:100970008328450002C8B7E70090371702204C00D3
:100980009387073402C2130747CAA146014523A033
:10099000070123A217013EC623A8050023AA0500CC
:1009A00023AC05003AC42318D100EF60403E930702
:1009B00000F86313F5000145B250456182800111D2
:1009C00006CE313DEF00D013EF20200B29E948007F
:1009D000EF003014EF20600A25E1924599C53705F4
:1009E000022013054518EF10B07A370502201305D1
:1009F0000519EF10F079B70502203715002093850F
:100A0000851A0147914613060020130525A5EF20FE
:100A100060080145EF20800AF24005618280AA85C6
:100A20003705022013050515EF1090760145EF20DC
:100A3000E008F24005618280B7070220AA8513858D
:100A4000C716EF10F0740145EF204007F240056132
:100A50008280411122C426C24AC006C60144370919
:100A60000220A9440504A2851305491BEF1050720A
:100A70001305803EEF200005E31694FE37050220A3
:100A80001305C51CEF10D0702244B24092440249B5
:100A9000014541016F208002411103A7418102C637
:100AA000FD5783C601816309F700B7070218A385C4
:100AB000D7000F00F00F01A0B7070218A385D700D9
:100AC0000F00F00FB24799E773F0008173005010E8
:100AD000B247FDDB4101828041111167B717002049
:100AE00022C426C206C613070788938787A92A84CB
:100AF0002322C5FAAE84232EE5FE2326F5F813063D
:100B000000081305C5F08145EF609170130584F06E
:100B1000232494F0B240224492444101828083C74E
:100B20000181B7060218A385F6000F00F00F83A716
:100B30004181850723AAF18005476383E70082800E
:100B400003C7B60083C70181E38BE7FEA385F600E8
:100B50000F00F00F01A083A7418191EB03C7018132
:100B6000B7070218A385E7000F00F00F01A0FD17DB
:100B700023AAF18099E7B7070218A38507000F00A1
:100B8000F00F8280411103C7018106C6B707021822
:100B9000A385E7000F00F00FF32740F19DE337171F
:100BA00003188327C7FFF99B232EF7FEEF20903B06
:100BB000B7070218A38507000F00F00FB2404101EC
:100BC0008280371703188A07BA97014798C3EF2026
:100BD0007039B7070218A38507000F00F00FB24065
:100BE00041018280011103C7018106CEB7070218B7
:100BF000A385E7000F00F00F6123B787EB519387C0
:100C0000F751B337F5023707031895831107B70675
:100C10000318104332C2904232C418433AC61246F7
:100C200032476304E600944236C4B246A245338696
:100C3000B7003337F600369763FAE606F32740F13C
:100C4000A1C7B75603188E07B697FD5694C393866F
:100C5000470098C290C3EF20C07311CDF32740F135
:100C60009DEF371703188327C7FF93E71700232E3D
:100C7000F7FE0F00F00FB7070218A38507000F005B
:100C8000F00FF24005618280B7070318A107FD56F7
:100C900094C3B7060318B10698C290C36DBF371747
:100CA00003188A07BA97054798C3E1B76314D700BA
:100CB000E3E6C5F881463706031814C21307460059
:100CC00014C314C2732740F119EB930686007D56B6
:100CD00090C237060318310618C29CC2ADBF375602
:100CE00003180E0732977D5610C31306470014C22F
:100CF0001CC395B7011106CE6121B787EB519387CD
:100D0000F751B337F5023707031895831107B70674
:100D10000318104332C2904232C418433AC61246F6
:100D200032476304E600944236C4B2462247330693
:100D3000F7003337E6003697F32640F1639506183F
:100D4000B7060318A106FD558CC2B7050318B105F7
:100D500098C190C2371702188346E70193F6E60F51
:100D6000230FD7008346E70193F6F60F230FD70032
:100D7000B706021803C7060005833D8BD44205C79A
:100D8000D582BD8A3686636FD714B716021803C79B
:100D9000F6013317C7001377F70F3357C7401377A0
:100DA000F70FA38FE600B716021803C7D601136723
:100DB0001700A38EE60037060318814614C21307F6
:100DC000460014C314C2732740F17DE393068600E6
:100DD0007D5690C237060318310618C29CC23717D9
:100DE00002188347D70193F7E70FA30EF7003707E1
:100DF0000218834707008583BD8B584385C75583F9
:100E00003D8BBA8663EEE70C371702188347F7016C
:100E1000B397D70093F7F70FB3D7D74093F7F70FF0
:100E2000A30FF700B717021803C7E7011377E70FFF
:100E3000238FE70003C7E7011377F70F238FE7003E
:100E400003C7D70113671700A38EE70003C7E700A6
:100E50001377E70F2387E70003C7E700136717003F
:100E60002387E70037070218834707008583BD8B78
:100E7000584385C755833D8BBA8663E1E70637172C
:100E800002188347F700B397D70093F7F70FB3D74C
:100E9000D74093F7F70FA307F700371702188347D8
:100EA000D70093E71700A306F700F24005618280A0
:100EB000375603180E0732977D5610C313064700A6
:100EC00014C21CC329BFB75503188E06AE96FD5534
:100ED0008CC29385460098C190C2ADBDBE8645B711
:100EE000BE861DB73A8655B501113707021806CEE2
:100EF00022CC26CA83470700584385835583BD8B80
:100F00001376F700BE866373F600B2868547B39703
:100F1000D700FD172147158F13F6F70F9D4613775E
:100F2000F70F63F3C600B6878546B396E60093F7DE
:100F3000F70FFD16B397E700D58F2388F1803707A9
:100F4000021883470700584385835583BD8B9375EB
:100F5000F700BE8637E6009063F3F500AE8685475E
:100F6000B397D700FD1793F6F70F1D476373D700AC
:100F7000BA872304F63473700430AD3BB7E70090B2
:100F80000547238CE73423AA0180EFF06FE7EF20B9
:100F9000607D03A7418102C6FD57630BF70003C7BD
:100FA0000181B7070218A385E7000F00F00F01A029
:100FB00003C70181B7070218A385E7000F00F00FF0
:100FC000B24799E773F0008173005010B247FDDB20
:100FD000F2406244D244014505618280F327203407
:100FE00063CB070003C70181B7070218A385E70099
:100FF0000F00F00F01A0D207D1834547637FF704AC
:10100000370602180347060005833D8B544231C75B
:10101000938707408A073E96D58283473600BD8A6C
:1010200093F7F70F13F6F60FB7E500906374D70048
:101030001376F70F2147118FB3D7E74093F7F70FD8
:1010400003C78534637BF70003C70181B707021824
:10105000A385E7000F00F00F01A0828001456FF02B
:10106000F61337050220130545216F60C15D138714
:10107000410E18C1938741CE9CC1930700101CC23A
:101080008280138701C7B707009018C193878764D0
:101090009CC1930700101CC28280370502201305F3
:1010A00045236F60415A014582803971A16726DA74
:1010B0006C08AA841305000206DE3ECE22DC4AD864
:1010C0004ED6A52472443309940237460F003334B8
:1010D00094021306062481464A85A285EF90A1104A
:1010E00037460F00AA84AE894A85A28513060624D6
:1010F0008146EF9061464D8D49C113891400B33488
:10110000990033843401B707031891073707031890
:10111000944336C4144336C69C433EC8A246C247D5
:101120006384F60018433AC6B7060318424891068E
:10113000B705031832459C423ECA9C413ECC9C42B6
:101140003ECE5247F2476304F7009C413ECCF24743
:1011500062473306A7403337C700B3870741998FEB
:10116000E3EB87FC6314F400E36726FDF25062545E
:10117000D2544259B2592161828026894E8461B786
:101180000111A1676C001305000206CE3EC6712A4C
:10119000F2403245056182804111F327407C3EC612
:1011A000324519810D893335A00041018280F5BD9A
:1011B0000111014506CEEFF0CFAE19C92C00EFF0BA
:1011C0002FB02247B247F2403A85BE850561828042
:1011D000F240014781473A85BE8505618280411111
:1011E00006C622C426C24AC0F32520347329907C47
:1011F000F3241034732430343705022013054524BA
:10120000EF60614437050220CA851305C525EF60EC
:10121000814337050220A68513054527EF60A142CB
:1012200037050220A2851305C528EF60C141EF10E4
:101230005021AA85370502201305452AEF60A140F9
:1012400001A082808567FD173377F500AD4663E125
:10125000E602B7E70090938747490A07BA979C438D
:101260008DC7411106C68297B24001454101828077
:10127000630FF7004111B717002006C69387E71DDB
:101280008297B24001454101828001458280B7E7E3
:10129000009083A7474CF1F7CDBF73E0A07CC167F6
:1012A00073A0A77C0F00F00F0F100000B7E70090AD
:1012B0009387474937170020938647031307E71D95
:1012C00098C39107E39ED7FEB7070218A3850700CE
:1012D000D84383C6070093F6160E2380D7005183A8
:1012E00083C60700798B558F2380E700996773B019
:1012F0000730896773A00730828082808280828075
:1013000019C5B7E7009023A6A73401458280094597
:101310008280B7E7009083A7C73491C79C4391C3ED
:1013200082870145828009458280B7E7009003C724
:101330000735AA8719CF0D4563FEE70037E7009010
:1013400003274735D1467F97D7C401455C439CC1ED
:101350008280054582801DC11C498DC383C7B700AB
:1013600021476389E70031476381E70215476389B5
:10137000E70089472380F500014582800D45828082
:1013800091472380F50001458280C1472380F50005
:10139000E5B713351500FD573305A0402380F50050
:1013A0000D8982804111154522C426C206C6B28429
:1013B0003684F53BB70700909387070E238297008A
:1013C00080C7B2402244924401454101828015CD3C
:1013D000411122C406C62E84154599E9C93BB707B9
:1013E0000090A382870EB2402244014541018280D1
:1013F0007D3B1545EF10006DB7070090A382870E67
:10140000B24022440145410182800D4582801DC1C8
:101410001C498DC303A7970098C103A7170118C2E1
:1014200003D7970101452390E60083C7B7012381C5
:10143000F60082800D458280B70600909387C60C27
:10144000D8430507D8C303C6070093050004630308
:10145000B6069305000C6308B60037050220130595
:10146000852B6F10E0524D46B285354863FAE50092
:10147000370700901307070C0843410508C3CCC386
:10148000370700901307070E834547009DC19C470F
:101490008A07B3D707039386C60C93F7F70F93F524
:1014A000F70F636EF600DC4263E5B7001C4791C39B
:1014B0008287828013064002B2851D4845BF93751E
:1014C000F60FDC42E3E7B7FED5B71DCD411122C4CC
:1014D00026C206C604492A8495C8C84009CD1C41C5
:1014E00099C73E85EF10E05FC84023200500EF104C
:1014F000405F23A204002285EF10A05E0145B240A8
:1015000022449244410182800D4582800D45C5BF31
:101510005DC5011126CA06CE1C49AA84DDC322CCB2
:1015200083C6D70045476385E6064AC84EC603C74B
:101530005701D54713F9F50F01448549631DF7009D
:10154000B1A063843707050405451374F40FEF1049
:101550006057630F2401DC4CDC43E5F741458139DA
:10156000050405451374F40FEF10C055E31524FF6F
:101570004249B249B707009003C5570E13451500FD
:1015800012056244F240D244056182804249B24968
:10159000DC4CC04311CC8547E31EF4FC13953500A9
:1015A00039312285EF100052F1B72145093161BF71
:1015B00013954500ED3E0545EF10C05065BF0D4544
:1015C00082800D45C1B719C1854599B70D45828007
:1015D00005C1411122C42E84854506C6153F09E583
:1015E000B707009023AA870CB240224441018280B1
:1015F0000D45828001CD4111854506C6113FB707D3
:101600000090B24023A8070C410182800D458280E2
:101610000DCD41115C4D22C4D84306C685472E84AA
:101620006302F702130500025936B707009083C71B
:10163000570E414581C7231004000145B2402244A2
:10164000410182804145A536CDB70D45828039C123
:1016500041115C4D22C4D84306C685472A84630FD6
:10166000F7004145A936B707009083C7570E91CFC1
:1016700022852244B2408545410159BD2145053EA0
:10168000B707009083C7570EE5F7B24022444145A3
:10169000410182800D45828039C141115C4D22C4D7
:1016A000D84306C685472A84630FF70041450136B3
:1016B000B707009083C7570E91CF22852244B240CE
:1016C00085454101B1B52145DD34B707009083C799
:1016D000570EE5F7B24022444145410182800D4555
:1016E000828049C1411126C206C60449BDC45C4D71
:1016F00022C4D84385472E846304F7044145453C02
:10170000B707009083C7570E4145B9C323100400A3
:101710002301040083C71401AD17B337F000850718
:10172000A300F40083C79400BD17B337F00085070A
:101730002300F4002244B2409244014541018280DA
:101740002145B534B707009083C7570E4145DDFFEB
:101750002244B240924441018280B24092440D45FD
:10176000410182800D45828059C9411122C426C29F
:1017700006C604492A84B5CC5C4DD8438547630628
:10178000F70613050002EFF09FA2B707009083C78A
:10179000570E4145A5C31C48A9CF83C6270135472D
:1017A0006369D70483C6470109476364D70403C745
:1017B0003701914763EFE70285452285913B1DE99B
:1017C00003C7240183C74401238BE400238CF40066
:1017D00085452285353B19ED83C73401A38BF40081
:1017E000B24022449244410182804145EFF03F9C47
:1017F00069BF0D45B24022449244410182800D45AB
:10180000828051C9411122C426C206C604492A84D5
:10181000ADCC5C4DD84385476305F7061305000240
:10182000EFF0FF98B707009083C7570E4145B9CF37
:101830001C48A1CF83C6A70031476368D70403C6FD
:10184000C7009D4663E3C60483C7B700636FF70212
:101850008545228575391DE903C7A40083C7C400E7
:101860002387E4002388F40085452285553119ED4E
:1018700083C7B400A387F400B240224492444101DC
:1018800082804145EFF0BF9271BF0D45B2402244C6
:101890009244410182800D4582806309050E411109
:1018A00022C406C6937717002A84BDE393772700E6
:1018B0008DEB118B59E32285453D05E15C4CD84306
:1018C0008547630FF7064145EFF07F8EB70700901D
:1018D00003C5570E134515001205B24022444101BD
:1018E000828093072003639FF6021C48118BE1D787
:1018F0009D462389D70061D305476373C706894690
:10190000630BD60611476365C706238A070065B7D0
:101910001C49C9DF1305D0076368B5029145A38947
:10192000B70069B7370502201305852FEF10400671
:10193000B24022440D45410182801C48D5FFA5BF1D
:101940002145EFF0DF8659B71305A00F637EB50080
:101950001305401F6364B5028945A389B700B9B771
:101960000947238AE70081BF8D45A389B7003DBFA2
:10197000238AD70089B7238AE70035BF1305803E45
:101980006368B5008545A389B7000DB70D45828012
:10199000A389070021BF011106CE2EC63DC993D7EA
:1019A000050122CC93F7F70F2A840D456365F504F2
:1019B0005C4CD84326CA85476303F704130500032C
:1019C000EFF0EFFEB70400909384040E83C7540039
:1019D0009DCB5C4CD84385476301F7044145EFF04C
:1019E0000FFD83C7540085C322856244D244F24070
:1019F0008D45056131BE6244F240056182806145DA
:101A0000EFF0EFFAC1B76244F240D24441450561BC
:101A10008280F2400D45056182802145EFF02FF96B
:101A2000C9B7411106C626C225C9854522C42A84E4
:101A3000C534AA840545EF10E00895EC5C4CD8430A
:101A400085476300F7041C489DC7B7160302371784
:101A500000029386068113074781A3A4D700A3A899
:101A6000E700A3A6D700A3AAE7002244B240268538
:101A70009244410182802244B24026859244410131
:101A800082802145EFF0AFF2B707009083C7570E71
:101A9000DDFBC1442244D9BF8D44B2402685924427
:101AA0004101828063080510411122C406C6937764
:101AB00017002A84B5E3937727008DEB118B49E358
:101AC0002285813305E15C4CD8438547630DF706D9
:101AD0004145EFF0CFEDB707009003C5570E134512
:101AE00015001205B2402244410182809307200371
:101AF000639DF6021C48118BE1D79D462385D700D4
:101B000061D31D476361C70A371702201307C7D186
:101B10000A063A96184202871C49D1DF09456368D4
:101B2000B5028D45A385B70079B7370502201305A7
:101B3000C533EF00F065B24022440D45410182807B
:101B40001C48E1F3B5BF2145EFF06FE669B71145D9
:101B5000637CB5002145637CB50441486369B804E2
:101B6000B145A385B70081BF9545A385B700A1B74F
:101B70001D472386E700A9B719472386E70089B7E1
:101B800015472386E7002DBF11472386E7000DBFC9
:101B90000D472386E7002DB705472386E7000DB7DD
:101BA0002386070031BF09472386E70011BFA385BD
:101BB000A70011B70D458280011106CE4AC86308FF
:101BC000050E22CC4EC6832905012A8463880908A4
:101BD00083A74900C1C75C4D26CAD84352C4854774
:101BE000AE843289630DF7084145370A0090EFF063
:101BF0000FDC130A0A0E83475A00C1CF91C4333653
:101C000020013306C040F18C85452285EFF05F90BE
:101C10002A8929ED5C4CD84385476306F70841457E
:101C2000EFF0EFD883475A00ADC783A7490013F7F9
:101C3000040E41468988A383C7002384E7002383D9
:101C40009700B70600906244F2402386E60CD24427
:101C5000B249224A4A854249056182800D4962445F
:101C6000F240B2494A854249056182806244F240AD
:101C7000D244B249224A4A854249056182802145BF
:101C8000370A0090EFF0AFD2130A0A0E83475A00CA
:101C9000B5F741496244F240D244B249224A4A85EA
:101CA0004249056182802145EFF06FD0A5BF0D4903
:101CB000F2404A8542490561828071CD411122C4BA
:101CC00026C206C604492A84C1C403C794009307E8
:101CD00007FF93F7F70F894663ECF60683C7D40036
:101CE0006395E70203C714019307C7FE93F7F70F45
:101CF0008D4663EFF60483C7540101456390E70600
:101D0000B24022449244410182805C4DD8438547D1
:101D1000630FF7064145EFF08FC9B707009083C7FF
:101D2000570E4145F1DF03C79400C9476307F70821
:101D300085452285EFF0CFFD61F503C7D400C1478B
:101D40006308F70883C79400A386F4000448D9F811
:101D5000B240224492440D4541018280228585454E
:101D6000EFF00FFB1314850183C7540151476184C1
:101D7000638EE702DD4603C714016380D702A38A9E
:101D8000E4002285B24022449244410182802145F0
:101D9000EFF0EFC159B70D458280D547E311F7FE4B
:101DA0002945EF00305203C71401D1BF13051005B8
:101DB000EF00505103C71401D9B785452285EFF0D4
:101DC0002FF51DFD89452285EFF08FF415F98DB7AC
:101DD0001545EF00304FBDB759CD011122CC4EC68D
:101DE00006CE832905012A846389090826CA4AC8C0
:101DF000B6843289B9C19C41A3A4F900EFF07FA059
:101E000031E5631D0902B9E82285453D21E15C4CBD
:101E1000D8438547630DF7044145EFF04FB9B70745
:101E2000009003C5570EF240624413451500D2449A
:101E30004249B24912050561828005C28327090023
:101E4000A3A8F9002285EFF03F9255DDD244424924
:101E5000F2406244B2490561828095C283D7040092
:101E6000A39CF90083C72400A38DF90071BF21450D
:101E7000EFF0EFB36DB70D4582800D45D1BF0D4535
:101E8000D2444249F1B71DCD0C498DCD83C7950190
:101E9000BD8BB706080237070002938606616146CC
:101EA00093E7070713074761A3A4D500A38DC500D7
:101EB000A38CF500A3A8E500938695011386150170
:101EC000A50519BF0D458280411106C626C251CD18
:101ED00022C404492A84C5C04AC003A94400630C33
:101EE00009061305F00FEF00903FDC402320A90006
:101EF000984349C7FD572384F4002285EFF07FB251
:101F0000AA8401C922440249B24026859244410173
:101F1000828022858D3FAA8475F5370400901304D2
:101F2000C40C5C44E5F3B716002037050220938605
:101F3000864313054538014751468545EF00102972
:101F400048C469F13705022013058539EF00502494
:101F50002244024955BF7145EF007038C8C02A8934
:101F600049F1A9442244024945B78D44B24026852F
:101F70009244410182808D44224479B73E85EF002E
:101F8000503623A20400F1BF011106CE22CC4DC170
:101F900026CA4EC683290501AA84638909084AC84E
:101FA000370900901309C90C0325C9002E8401C507
:101FB00083470901A1E3954763EE8706B71702201F
:101FC0009387C7D30A043E941C4082874147D14778
:101FD000A384E900A388F9002685C5312A84154524
:101FE000EF00502ED2444249B2492285F240624469
:101FF00005618280FD55EF00D02505E12308090029
:102000005DBFE147A38DF900C1BFD147A388F900A7
:10201000E1B7C147A384F900C1B737050220130512
:10202000053CEF00F0162308090071B7D244B2490D
:102030000D4465BFD2444249B2490D447DB70111F8
:1020400006CE22CC630405104AC84EC6832905017A
:102050002A89638B090E85472E846380F50689479C
:102060006394F50203C729019D47631DF70426CA3F
:10207000B70400909384C40CC84401C583C704010D
:10208000B5CB4147D54759A89387D5FF93F7D70FCD
:1020900091EB83C7A9001D476396E70203C7290197
:1020A0006312F70226CAB70400909384C40CC84494
:1020B00029C983C70401B1E735A803C7A9009D4713
:1020C0006300F702370502201305453EEF00500C70
:1020D00019444249B2492285F24062440561828036
:1020E00026CAB70400909384C40CC84435C183C782
:1020F0000401B9EFFD55EF00501331ED85472388FA
:10210000F400954763E18704B7170220938747D50A
:102110000A043E941C4082874547D547A384E900C2
:10212000A388F9004A85513E2A841545EF0090198D
:102130002285F2406244D2444249B249056182801C
:102140004147D147E1BFD2444249B2490D4461B74A
:102150004547D147E1B73705022013050543EF0096
:10216000300369BF630E0510B147630DF60063F5D8
:10217000C700B5476316F600B707009023A0C70E47
:1021800001458280011122CC06CE26CA2A84C5CA06
:1021900083D58600D8425C4C90423AC42316B100E5
:1021A000D84332C285476301F70C4145EFF02F80D9
:1021B000B70400909384040E83C75400D5CB8545A3
:1021C0002285EFF0EFB42DE55C4CD8438547630FD3
:1021D000F70A4145EFE0BFFD83C75400D1CB8545E9
:1021E0002285EFF0EFB229E55C4CD8438547630BBD
:1021F000F7084145EFE0BFFB83C75400B5CB8545E9
:102200002285EFF0EFB00DE55C4CD84385476303C2
:10221000F7084145EFE0BFF983C75400B1CB8347CE
:1022200041000D456366F50085452285EFF04FAE10
:10223000B1479CC0F2406244D2440561828092471B
:10224000370700FEB7160B00F98F938626C00347A9
:10225000C100D58F136727003EC25C4C2306E10006
:10226000D8438547E313F7F42145EFE05FF489B7DE
:10227000B1479CC0F2406244D2444145056182802E
:102280000D4582802145EFE09FF2BDB72145EFE08B
:102290001FF299B72145EFE09FF1BDBF011126CA9A
:1022A00006CE0451E1C822CC5C4D2A84D5CF8545A9
:1022B000130500024AC8EF40017B2A8961C94EC656
:1022C00013078003B71702202312E4029387C7D6AF
:1022D00098405CC408C801CB1545EFE05FED15459B
:1022E000EF00407E0450B709009085479389090E9E
:1022F000A382F9009C4489C71545EFE05FEB0450C9
:10230000DC4081C71545EFE09FEA5C4CDC4395C398
:1023100005476386E7064145EFE07FE983C759003B
:102320009DC7014562444249B249F240D244056129
:1023300082801545EFE0BFE75C4CD8438547E31C3E
:10234000F7FC2145EFE0BFE683C75900F9FB4A855A
:10235000EF40C175F2402328040062444249B2496B
:10236000D2444145056182806244F240D2440D4529
:1023700005618280F240D2440D450561828021458D
:10238000EFE0FFE283C75900C5FBD1B7294562449E
:10239000424961BF63070510411122C426C206C627
:1023A00004492A84B5C4DC40A5C79C43B5C35C4D31
:1023B000D8434AC085476303F70613050002EFE0E0
:1023C0001FDF370900901309090EB70700909387A4
:1023D000C70C8346590003C70700ADC2930600042B
:1023E000630AD70A9306000C6308D7063705022054
:1023F00013054545712BDC4003D7470019C32392D1
:102400000700B240224402499244014541018280C2
:102410000D45B24022449244410182804145EFE0A3
:102420001FD9370900901309090EB7070090938749
:10243000C70C8346590003C70700CDF21377F7078F
:10244000930700046307F70037050220130545458D
:1024500081234145024975BFDC433547B387E70215
:10246000C207C183D8400355470063F5A700231274
:10247000F7003E8559D55C4CD84385476305F70284
:102480001205EFE0DFD20345590013451500120590
:10249000024941B7DC431D47B387E702C207C18346
:1024A000D1B70D4582800E05EFE07FD0E9BF3971CD
:1024B00006DE4AD85DCD22DC26DA04492A84C5C866
:1024C00003A8440083270800DDC3B7070090938763
:1024D000070E03C75700414979C34ED6034788000A
:1024E000AE891377070C9305000C631AB70898435D
:1024F000B147631DF70A03C79400C547631BF7087C
:1025000003C71401D5476316F70883C7A4001D4706
:102510006395E70A52D403CA2401631FFA0803C76C
:10252000B400A1476318F70A83C73401C5E783C71E
:10253000C40009476399E70803C744016315F70816
:10254000B707009056D2938AC70C83C70A001307B7
:1025500000046388E7081307000C638BE714370552
:102560000220130585602D21225A925A31A8625407
:10257000D2540D49F2504A85425921618280370573
:10258000022013050549292119496254D254B25930
:10259000D5B7370502201305C550DD2EF5B76254B7
:1025A000F250D2544A854259216182803705022077
:1025B0001305054DF12EC9BF225A37050220130518
:1025C0008554F926D1B7370502201305C55CC92605
:1025D000225A5DBF3705022013050559552E225A90
:1025E00065B79D47B387C7022312F800228536C618
:1025F00055332A8969E1DC4003D747005AD0334775
:102600004703B246137BF70F630D0B0A66CA832C90
:10261000040163800C0E370A0090130A0A0C5ECE88
:1026200062CC1374F70F832B0A00032C4A00931417
:10263000440063F88B0B6AC883278A00338D7401CA
:1026400036C6B38577016377AC09330D7C416A8662
:102650004E85EF50A14633868B4126963385A901DE
:102660008145EF50E13AB24683A74C0003C76700AB
:1026700023208A018947630BF70009C8CE85338779
:10268000990023A60500C105E39DE5FE424D83A701
:102690004A00818F23A2FA00239066016254D2542B
:1026A000B259225A925A025BF24B624CD24CD9B5C3
:1026B000354AD28705BF6254D254B259225A925A2F
:1026C00055BD239006006254D254B259225A925AF0
:1026D000025B4DB526864E85EF50413E6A8CB24670
:1026E00061B7268681454E8536C6EF506132B246C7
:1026F00079BF6254D254B259225A925A025BD24CD8
:102700008DBD397106DE4AD859CD22DC26DA04495E
:102710002A84C1C8D84051C71C43C1C7B70700901D
:102720009387070E4ED6AE8983C557004149D1C164
:102730008345870093F50504CDC18C43B14763926F
:10274000F50883C59400C5476393F50852D403CABE
:10275000A4009D476319FA0883C5B400A147639B91
:10276000F50883C5C4008947639FF51656D2B70A9A
:102770000090938ACA0C83C70A0093050004638201
:10278000B7089305000C6387B716370502201305B9
:10279000457AFD2A225A925A19496254D254B259A2
:1027A00021A06254D2540D49F2504A854259216108
:1027B00082806254F250D254B2594A854259216102
:1027C00082803705022013054568D922F1B7370505
:1027D00002201305C56B6D2AC1B73705022013050A
:1027E00085647D2255BF370502201305456F4D22B4
:1027F000225A5DB73705022013058573512A225AE4
:1028000061BF9D47B387C7022312F700228536C6F2
:10281000EFF05FB82A8971E1DC4083D74700B24608
:10282000B3C7470313FAF70F63070A0A5AD0032BFB
:10283000040163060B14B70400909384040C5ECE6D
:1028400013F4F70F984083AB440013154400637EE4
:1028500077119C443A95BA9763E1AB0A6308041276
:1028600029474E887F18E4C499074E8703960700CE
:1028700083A567002310C700039627002907231CA0
:10288000C7FE03964700232EB7FE231DC7FEC107D0
:10289000E31E07FD83274B0003C7670088C08947F5
:1028A000630CF7002947CE87FF17E4C4CE8523A326
:1028B0000500A905E39DF5FE83A74A00818F23A2A9
:1028C000FA00239046016254D254B259225A925AC5
:1028D000025BF24BD1BD239006006254D254B25930
:1028E000225A925AD1B537050220130505774D209B
:1028F000225A5DB5354AD28731B73387EB4013553D
:1029000047001DC929474E887F18E5C499074E879F
:102910000396070083A567002310C70003962700CE
:102920002907231CC7FE03964700232EB7FE231D4D
:10293000C7FEC107E31E07FDA9474E877F17F5C4F1
:102940003306A4403306F6023A85814536C6EF5079
:10295000210C83274B0003C7670023A0740189471C
:10296000B246E30BF7F41DFC81BF29463306C402CF
:1029700081454E8536C6EF50A109B24635BF625437
:10298000D254B259225A925A025B31BD88C02DB737
:10299000397126CA44102ED2A68506CE22CC26C670
:1029A00032D436D63AD83EDA42DC46DEEF40715EAB
:1029B0002A8437050220A6851305C57DEF40715D89
:1029C000418DF2406244D2442161828001112E88FF
:1029D00006CEAA85BA873685630E08000547C286EB
:1029E000631AE8022A876800412211E93245F24061
:1029F000056182802A8781466800BD2265D983A748
:102A000081816357F000370502201305857F493720
:102A10000145F1BF83A78181E35CF0FE3705022009
:102A20001305057EB5370145D9B7411106C66522A4
:102A300001E5B2404101828083A781816344F000B7
:102A40007D55C5BF371502201305C58091377D55CB
:102A5000CDB7411106C6752A01E5B2404101828019
:102A600083A781816344F0007D55C5BF37150220DF
:102A700013050582313F7D55CDB7BD4763EAA700F9
:102A8000B70707200A05938707B2AA978843828071
:102A90007D5582800111BA87420636874182BE8603
:102AA0007C0006CE092D85476316F500F2403245BD
:102AB00005618280F24001450561828095AD82808A
:102AC0006F00007BB7E7009083C7873591E3828072
:102AD000411106C60928B24041016F00703D6F10D8
:102AE000807A6F10D013B7D6CCCC9386D6CCB337C0
:102AF000D502898315462A877F97C7C6B7D7CCCC1E
:102B00003307E5409387C7CC3336E500B307F702B8
:102B1000FF17D6C63336D702B2973307D7020583DD
:102B20001396F701598EA94585833337B602AA86D5
:102B3000FF16B6C67F97B7C43335D500B307E0405C
:102B4000898FDD8EB336D0003305D60082804111E7
:102B500006C6EF10206A584109C7B2400C45410132
:102B60000287B2404101828001114EC6AA893145D7
:102B700026CA4AC852C456C25AC006CE2E8B3289C3
:102B8000B684BA8A3E8AA13F29C522CC2A844A85C6
:102B9000993F37370020AA85A28626865A851307D3
:102BA000E7B4EF10002008C015C1232254012324EC
:102BB000440123A0890001456244F240D2444249C5
:102BC000B249224A924A024B056182802285113F16
:102BD00062440545DDB7411122C426C206C6FD5731
:102BE0002E84AA846385F5002E85F53D2A848440D1
:102BF000EF0080722A862287268581468545EF1060
:102C0000C021B24022447D1592443335A0004101D9
:102C10008280411122C406C6FD572E872A8463850F
:102C2000F5002E85C9352A870840814601468D4525
:102C3000EF10A01EB24022447D153335A0004101A3
:102C4000828001456F00A072011122CC4AC806CED5
:102C500026CA4EC62A84EFD09FEC37E70090832720
:102C6000C73885072326F73837E900908327C93905
:102C7000D1CFB7E9009083A709385854A5CFB7E45E
:102C800000909384C452B7E6009083A70637850767
:102C900037E6009023A8F6367CC08327463863F4D5
:102CA000E7002322E638D14726857F15F7C4930530
:102CB0004400EF00507AEFD01FEA83A7093885C798
:102CC0008327C939D8575C54637FF700F32740F155
:102CD000A9EF371703188327C7FF93E71700232EA1
:102CE000F7FE0F00F00FF2406244D2444249B2496D
:102CF000056182808327C939B7E40090DC5793844B
:102D0000C452E362F7F8232E8938B5BF232E8938E1
:102D10000327C73885476303F702B7E4009093841D
:102D2000C4525854B7E90090B9BF371703188A073F
:102D3000BA97054798C30F00F00F75B7B7E9009031
:102D40009384C95252C49389C952138A040A4E8586
:102D5000D109EF00B06EE31C3AFF37EA009013058B
:102D60008A51EF00B06DB7E9009013854950EF002C
:102D7000F06C37E500901305054FEF00306C37E538
:102D800000901305C54DEF00706B37E500901305FB
:102D9000854CEF00B06A130A8A51B7E7009023AC64
:102DA000473993894950B7E7009023AA37395854D7
:102DB000B7E90090224AC1BD011126CAB7E70090C9
:102DC000B7E400904EC683A9873883A7C43922CCC4
:102DD0002A84138547004AC806CE2E89EF00F06B7F
:102DE000FD576300F4044E9483A7C439C0C36363E2
:102DF0003405B7E7009003A5873983A5C439910549
:102E0000EF00D066B7E7009003A7C7366374E4000D
:102E100023A68736F2406244D2444249B249056152
:102E20008280631C09041387F9FF83A7C439D8C3C0
:102E300063810902B7E7009003A54739624483A57F
:102E4000C439F240D2444249B249910505616F004C
:102E5000F061B7E7009003A5873983A5C4399105D0
:102E6000EF00D060F2406244B7E70090D24442499C
:102E7000B24983A7C7360561828083A5C4396244FD
:102E800037E50090F240D2444249B249910513051A
:102E9000854C05616F00305C01114EC69319260008
:102EA00022CC52C44E862A8A2E8403250803930519
:102EB000500A26CA4AC856C25AC0C2843E8B06CEA1
:102EC000B68A3A89EF40D134F1199C58BE9993F9EA
:102ED00089FF51CCA285930704011388440383C85A
:102EE0000500230018018505638508000508E3989F
:102EF000F5FEA38104049D4763F327013E891385F2
:102F0000440023A6240323A6240523A80404EF00D9
:102F1000305413858401EF00B053A147B387274194
:102F200084C8C4D023A4040623AA04049CCC23ACE4
:102F3000040423AE040423A0040623A2040623A64B
:102F40000406238804065686D2854E85EFD0DFB866
:102F500088C063040B0023209B00F2406244D244EB
:102F60004249B249224A924A024B05618280238A31
:102F7000040251B701114EC652C4B7E9009037EAB6
:102F8000009026CA4AC856C25AC006CE22CC93899F
:102F9000C94D130ACA52B7E4009037E90090854A38
:102FA000094B83A70439B9CFEFD07FB783A7C900F6
:102FB000C04713054400EF00504E8327C938FD1762
:102FC0002326F93883A70439FD1723A8F438EFD056
:102FD0009FB88347140791CF638B5705E38367FD41
:102FE00003C70181B7070218A385E7000F00F00FA0
:102FF00001A00858EF10A0422285EF10404283A79D
:103000000439DDF383270A000547637FF700F327C0
:1030100040F195E3371703188327C7FF93E717009D
:10302000232EF7FE0F00F00FEFE04F839DBF2285A8
:10303000EF10E03EBDB7B71603188A07B69798C3DE
:103040000F00F00FD5B79DCF011122CC06CE4284E0
:10305000630108029308400746C63243630D130319
:1030600003C70181B7070218A385E7000F00F00F1F
:1030700001A003C70181B7070218A385E7000F006D
:10308000F00F01A003C70181B7070218A385E7006D
:103090000F00F00F01A08948A30818072328F802A1
:1030A000B2483C00D53B2285EFF01FBAF2406244A3
:1030B00022450561828079714ECEAA8913152600BA
:1030C00026D252CC56CA5AC85EC606D6B2842E8ABA
:1030D000B68A3A8BBE8BEF10001B29C922D42A84F2
:1030E000130540074AD0EF10001A2A891DC900D9DC
:1030F0002A88A3080506DE875A87D6862686D285C3
:103100004E85593B4A85EFF03FB40545225402599C
:10311000B2509254F249624AD24A424BB24B456194
:1031200082802285EF10A02F225402597D55CDB701
:10313000411122C42A844AC006C626C237E900903B
:10314000EFD0FF9D69C0930444002685EF00F03462
:103150001C5489C713058401EF00303437E7009011
:103160008327073785072328F7368327C939638DD7
:10317000870637E700908327C738FD172326F738DF
:103180008347140785C305476389E70A09476381B5
:10319000E70203C70181B7070218A385E7000F0004
:1031A000F00F01A00858EF1080272285EF1020278C
:1031B000B7E7009003A78739184329EBB7E70090DA
:1031C0007D5723A6E736EFD01F99B7E7009083A776
:1031D000073889C78327C93963838704B2402244EB
:1031E000924402494101828037E500901305C54DA4
:1031F000A685EF00502637E700908327073985071B
:103200002328F738C9B70324C93935BF83A78739BD
:10321000DC479843B7E7009023A6E7366DB7B7E7DA
:10322000009083A7473691CF03C70181B7070218E3
:10323000A385E7000F00F00F01A02285EF10201EEC
:1032400085BFF32740F181EF371703188327C7FFA6
:1032500093E71700232EF7FE0F00F00F41B7371743
:1032600003188A07BA97054798C30F00F00FBDB738
:10327000011170002C00480006CE02C202C4EFD03B
:103280001FDFB715022037350020A247124832460B
:1032900093850583130545F701478146EFF0BFDAB3
:1032A000B7E7009023A4A73629C9EF0090298547E6
:1032B000630EF500FD576312F50403C70181B707DC
:1032C0000218A385E7000F00F00F01A003C70181DA
:1032D000B7070218A385E7000F00F00FB7E70090CB
:1032E0007D5723A6E736B7E7009023A0A738B7E7B6
:1032F000009023A40738EFD03FBFF240B707022069
:1033000083A747EE0561828037E700908327473621
:1033100085072322F7368280411106C622C4EFD0EA
:103320001F80B7E7009003A48738EFD0DF822285A3
:10333000B240224441018280411106C6EFD01FCA2B
:10334000B707021803C7B70083C601811377F70FC9
:10335000A385D7000F00F00FB7E6009003A58638CD
:10336000A385E7000F00F00FB2404101828001C544
:10337000130545038280B7E7009003A5C7396DF9AF
:1033800003C70181B7070218A385E7000F00F00FFC
:1033900001A07971B7E7009006D656CA83A74736D1
:1033A000CDEFB7E700904AD003A98738050966C278
:1033B00023A427396300090C4ECE5EC6B7EC0090FB
:1033C00083A7CC366367F90C52CC37EA0090832789
:1033D0008A399C4363800716B7E900905AC862C4D3
:1033E00022D426D29389C952814AB7EB009037EB99
:1033F0000090514C89A0EF00500A1C541305840121
:1034000099C3EF0090095C544E8503274B387F9594
:1034100087C5A6856374F7002322FB38EF00B0034D
:1034200083A7CB39DC5758546363F700854A832759
:103430008A399C43F1CF83278A39DC47C0479304FC
:1034400044005C402685E378F9FA23A6FC36225432
:103450009254624A424B224CA1A037E70090832746
:10346000C7378507814AB250232EF7365685D24A90
:1034700045618280B7E7009003A78739184321CFC1
:1034800003C70181B7070218A385E7000F00F00FFB
:1034900001A0B7E900909389C952814AB7EB009027
:1034A00083A7CB39D857D147FF19F7C4854703A75E
:1034B000090063F3E700BE8AB7E7009083A7873768
:1034C00091C3854AB2500259F249B24B924C56858B
:1034D000D24A4561828037E7009083A68739032668
:1034E000473923ACC738232AD738B7E6009003A75B
:1034F0004637050723AAE63603A787394ECE5EC6B0
:10350000184305E3B7EC0090FD5723A6FC364DBDEC
:1035100022549254424B224CFD5723A6FC36624A59
:1035200041B783A78739DC479C43B7EC009023A6BB
:10353000FC3679B5B7E900909389C952814AB7EB57
:103540000090D9BF797106D622D4EFD04FDDB7E70E
:10355000009003A747367D1723A2E73683A7473697
:1035600063930710B7E7009083A7C738638D070EF2
:103570004AD037E900901309094F5EC626D2832747
:103580000900B7EB0090D9C352CC37EA00904ECE79
:1035900056CA5AC862C4130ACA52B7E9009037EB38
:1035A0000090B7EB0090D14A054C8327C900C04773
:1035B00013058401DD25930444002685F92D5C5410
:1035C000528503A749387F9557C5A6856374F700D0
:1035D00023A2F93849258327CB39DC575854636433
:1035E000F70023AC8B3783270900E1F3B7E700909E
:1035F00003A78739184341E3B7E700907D5723A617
:10360000E736F249624AD24A424B224C37E90090EF
:103610000324C93719C88544EFF0BFD77D1419C1F9
:1036200023AC9B3675F8232E093683A78B378DCBB9
:10363000F32740F1A1EB371703188327C7FF93E760
:103640001700232EF7FE0F00F00F05449254025985
:10365000B24BEFD04FD02285B250225445618280C8
:1036600092540259B24BEFD00FCF01442285B25091
:1036700022544561828083A78739DC479843B7E7A6
:103680000090B5BF371703188A07BA97054798C344
:103690005DBFB7E7009083A7473691EB03C7018171
:1036A000B7070218A385E7000F00F00F01A059BD6E
:1036B00009EDF32740F19DCB371703188A07BA9716
:1036C000054798C30F00F00F8280411122C437E4F0
:1036D000009006C6832744368DC703C70181B7070C
:1036E0000218A385E7000F00F00F01A03717031899
:1036F0008327C7FF93E71700232EF7FE0F00F00F75
:1037000082808327443685072322F4368145EFF0F3
:10371000AFEA8327443691EB03C70181B70702184C
:10372000A385E7000F00F00F01A0EFF0BFE111ED5E
:10373000F32740F199EF371703188327C7FF93E763
:103740001700232EF7FE0F00F00FB2402244410174
:103750008280371703188A07BA97054798C30F0066
:10376000F00FE5B7B7E7009083A7473699C7B7E7EB
:103770000090054723ACE7368280B7E7009023AC82
:103780000736B7E7009003A78738B7E700904111E5
:1037900023AEE73437E7009022C406C683A6C735B8
:1037A0000326073637E40090637AD60003A5C735B1
:1037B0008325C439B455918EAA96B4D503A6C735CE
:1037C0008326C4398327C4392320C7369C5B98429B
:1037D00063F5E706B7E60090B7E500909386C6521A
:1037E00083A74538514636877F97C7C4184301EBF6
:1037F00085CFFD1736877F97C7C4184375DB5147C0
:103800003387E7023385E60050415042210750C11B
:10381000BA96630DD6025846232EE438B2402244AD
:1038200023A2F5384101828003C70181B70702183E
:10383000A385E7000F00F00F01A00325C4398325FD
:10384000C43993854503EFD0DF8169B7504250C139
:10385000D9B715C14111B7E7009022C42E8483A5C2
:10386000C739E10506C6192122852244B2408545A3
:1038700041016FF06FD403C70181B7070218A38518
:10388000E7000F00F00F01A01DC54111B7E7009040
:1038900026C2AE8483A5C73922C4E105328406C698
:1038A0005D2E11C0FD54A2852244B240268592446B
:1038B00041016FF06FD003C70181B7070218A385DC
:1038C000E7000F00F00F01A041115C4522C406C6BD
:1038D00026C2C04735C89304840126857D2EB7E7EC
:1038E000009083A7473695CB37E500901305054F29
:1038F000A6859526B7E7009083A7C739DC575854AB
:10390000014563F7E700B7E70090054523ACA7360C
:10391000B2402244924441018280930444002685AF
:10392000AD2E37E700905C548326473863F4F600E9
:103930002322F73837E5009051471305C5527F958C
:10394000E7C4A685092E7DB703C70181B707021812
:10395000A385E7000F00F00F01A037E70090B7E75D
:1039600000900327473783A7873818C15CC182803E
:103970002DC1411126C206C622C4AE84B1C12A841B
:10398000EFD0EF9937E700909C40832687387D562B
:103990006387C706B7E5009003A5453703280400F1
:1039A00050406301A80463EFC60223A0040005444D
:1039B000EFD06F9A2285B240224492444101828026
:1039C00003C70181B7070218A385E7000F00F00FB6
:1039D00001A003C70181B7070218A385E7000F0004
:1039E000F00F01A03385C640E371F5FC958FB297C7
:1039F0009CC083A645378327873814C05CC0014428
:103A000045BFB7E70090054723ACE7368280B7E7AC
:103A1000009003A5C7398280B7E7009083A70738D5
:103A2000054581CBB7E7009003A547361335150050
:103A3000060582802DC5011126CAB7E4009083A730
:103A4000C43922CCD85706CE5C552A8463FEE702DF
:103A50004AC8184D6348070003A7C4395457214783
:103A6000158F18CD37E900901309C952D1464A87FE
:103A70007F97D7C45C486386E70283A7C439DC57C5
:103A80005CD40545424939A083A7C439DC57684551
:103A90003335F500F2406244D2440561828001452D
:103AA00082804EC6930944004E85C52A83A7C43937
:103AB000DC5737E700905CD48326473863F4F60080
:103AC0002322F73851474A857F95E7C4CE85612286
:103AD000B24945BF31C94111B7E7009022C406C6BB
:103AE00003A4C739630BA40003C70181B7070218F9
:103AF000A385E7000F00F00F01A03C4889CFFD1718
:103B00003CC8545478446383E6008DC30145B240F9
:103B100022444101828003C70181B7070218A385AF
:103B2000E7000F00F00F01A00145828026C2930438
:103B3000440026859D227C4421471D8FB7E60090D6
:103B400018CC5CD403A746386374F70023A2F63878
:103B500037E5009051471305C5527F95E7C4A68508
:103B6000DD280545924465B735C9411122C406C612
:103B70003C492A8491EB03C70181B7070218A3854A
:103B8000E7000F00F00F01A07845636CB7005454B4
:103B90006385E60005466388C700B24022444101C0
:103BA00082802E87EDB7B7E7009083A7C73963817E
:103BB000870626C258D41C4C63C50700A147998FBD
:103BC0001CCCB7E400909384C4525147A687FF975A
:103BD000E6C458486305F7009244C1B782804AC0E2
:103BE000130944004A85552837E700905C54832622
:103BF000473863F4F6002322F738268551472244DC
:103C00007F95E7C49244B240CA8502494101A1A010
:103C100003C70181B7070218A385E7000F00F00F63
:103C200001A0B7E7009003A7C73911C783A6C7391A
:103C3000B84A0507B8CA03A5C7398280930785002B
:103C40007D575CC15CC51CC92320050018C5828056
:103C50002328050082805C41984798C5DCC14CC38D
:103C60008CC71C41850788C91CC1828090417D5743
:103C7000930785006300E602BE86DC439843E37D3C
:103C8000E6FEDCC18CC794C51C41CCC2850788C93F
:103C90001CC182801449DC42EDB7544118451C49CF
:103CA00098C654C3D4436389A60098437D1723283C
:103CB000050098C388438280D8C398437D17232882
:103CC000050098C388438280411122C406C637E4A8
:103CD0000090EFC0DFE48327843A91C72244B240CA
:103CE00041016FC05FE74AC037E900901305497290
:103CF00026C2A937B7E40090138504718137B7E66F
:103D0000009037E60090130949729384047137E8F4
:103D10000090B7E700909386C65C130606620147E1
:103D2000C1453D452328283B23A6973AEF00302480
:103D30002324A43A224492440249B24041016FC074
:103D40009FE1011106CE4937B7E7009083A7873A74
:103D5000A1C370002C00480002C202C4EFD06FB2B1
:103D6000B715022037450020A247124832469385F6
:103D7000C5831305C5F21D478146EFF0CFACB7E709
:103D8000009023A2A73A09C5F2400545056182804B
:103D900003C70181B7070218A385E7000F00F00FE2
:103DA00001A0011156C2AA8A1305C00222CC26CA5C
:103DB0004AC84EC652C406CEAE843289368ABA8903
:103DC000D9212A8405C9230405029DCCF53D13059C
:103DD00044002320540104CC232E44012320340327
:103DE000EFF01FE7630809008347840293E7470069
:103DF0002304F4022285F2406244D2444249B2498B
:103E0000224A924A0561828003C70181B7070218DE
:103E1000A385E7000F00F00F01A029C5011122CCF6
:103E200037E4009006CE8328843AAA870145638749
:103E300008023EC42EC032C2954763CEB70226CADE
:103E4000BA84EFF07FBD894781466300F5040146DF
:103E50008A850325843AEF00902CD244F2406244D4
:103E60000561828003C70181B7070218A385E700B7
:103E70000F00F00F01A036868A8581464685EF0047
:103E8000104BF24062440561828026868A850325B4
:103E9000843AEF00D028D244D1B701114AC806CEE7
:103EA00022CC26CA4EC637E900900DA0DC47C04799
:103EB00093044400268583A90700EFF01FDE1C5001
:103EC0002285829783478402918B85E78327093B6C
:103ED000984369FF37E700908326C73A2328D93AE9
:103EE000F24062442326F73AD2444249B24905617E
:103EF00082801C4CCE97014781464E8681452285A3
:103F000063FAF9005CC000C80325093BA685EFF001
:103F1000FFD56DBFEFF07FF055F903C70181B707FB
:103F20000218A385E7000F00F00F01A05D7152DCBD
:103F3000370A0720A2C4A6C2CAC04EDE56DA5AD833
:103F40005ED686C662D466D26AD06ECE130A0AB630
:103F5000B7E9009037E90090B7EB009037E40090A4
:103F60008A84371B0318A54A83A7093B03AD0700C2
:103F7000630D0D14DC4703AD0700EFF0EFB8EFF071
:103F8000AFB98327093AAA8C6362F5162320A93AB0
:103F90000146637EA517B3059D410325843AEF10C2
:103FA000202BEFF00FEF09EDF32740F1639A071490
:103FB0008327CBFF93E71700232EFBFE0F00F00FA4
:103FC0000146A6850325843AEF00F05751DD82476C
:103FD000224563C5070EA24C83A74C0189C71385F0
:103FE0004C00EFF09FCBEFF02FB38327093A2A8DD7
:103FF0006365F5102320A93B8247E3E3FAFC8A07B7
:10400000D2979C438287924783C68C0203A68C0179
:1040100093E616003387C7002384DC0223A2EC005A
:1040200023A89C01B336F700636CED10330DFD40FF
:10403000636BCD1483A70C026685829783C78C02BD
:10404000918BBDDF124683A78C013E9601478146C6
:1040500081456685EFF07FDC25F503C70181B70751
:104060000218A385E7000F00F00F01A003C78C0220
:104070001367170092472384EC0223ACFC00638093
:104080000714EA9723A2FC0023A89C0193854C0007
:104090006363FD0C03A5CB3AEFF05FBD15B783C793
:1040A0008C02F99B2384FC0221BF83C78C0213F787
:1040B00027005DC7F99B2384FC0219B79247B245DC
:1040C00082978247E3CE07EE39B7EFF0EFA3EFF028
:1040D000AFA48327093AAA8C636AF50083A7CB3A79
:1040E0009043133616002320993B75B5EFF0FFDAA5
:1040F0002320993BEFF0EFD9E1B5EFF01FDADDBDFA
:104100008A07DA97054798C30F00F00F55BDEFF007
:104110004FD883A7093BDC4703ACC700930D4C0085
:104120006E85EFF09FB703478C029376470085EECC
:10413000799B2304EC0203270C026285029749B5A0
:104140006374FD00E38806EE93854C0003A5093BEC
:10415000EFF0DFB1B5B503A5093BEFF03FB18DB589
:104160006685752CB1BD83268C013307DD002322C3
:10417000EC0023288C0163FFEC00EE8503A5093BCE
:10418000EFF0DFAE4DBF93854C0003A5CB3AEFF0C7
:10419000FFAD3DB5B38CAC4163ECDC020147814619
:1041A0006A8681456285EFF05FC751F503C70181DB
:1041B000B7070218A385E7000F00F00F01A003C79F
:1041C0000181B7070218A385E7000F00F00F01A0D7
:1041D000EE8503A5CB3AEFF07FA9B1BF19C14841E5
:1041E000828003C70181B7070218A385E7000F008B
:1041F000F00F01A019CD411122C42A8406C6EFC0D8
:104200001F92404CEFC03F952285B24022444101AD
:10421000828003C70181B7070218A385E7000F005A
:10422000F00F01A0B7E700909387C73C3E879C43FF
:10423000E3EEA7FE5043B305C70054416307B50240
:104240003306D5006387C7001CC16303A70008C3FA
:10425000828037E600900326863CE387C7FED04382
:10426000B2969C431CC154C1CDB7B29654C3330619
:10427000D700E39FC7FC37E600900326863C3A85CB
:10428000E39FC7FC8280011122CC06CE26CA4AC811
:104290002A84EFF06F87B7E5009083A7853C63859C
:1042A0000710B7E7009083A4473BB3779400D1E3AE
:1042B0009307F4FF5957636EF7061377740093075B
:1042C00084003DE34EC652C437EA009083294A3C3D
:1042D00063ECF91237E600900324C63C1306C63C93
:1042E00029A0184011C722863A845440E3EBF6FE19
:1042F00003A7853C630A87100C4003290600338717
:10430000F6400CC2414621096376E6043305F40009
:10431000937675009DCA03C70181B7070218A3856C
:10432000E7000F00F00F01A013F787FF210763E6F6
:10433000E706EFF00FB6EFC05FD60149F2406244E6
:104340004A85D24442490561828058C15CC0EFF081
:104350007FED5440B389D940B7E7009023223A3D1E
:1043600003A7073C63EFE90237E700908327C73BC9
:10437000D58C850744C023200400232EF73AEFF0A4
:104380004FB193777900C9CB03C70181B7070218F2
:10439000A385E7000F00F00F01A04EC652C4BA87F4
:1043A00025B723A0373DC9B7B7160090938706F30A
:1043B00013F7770029CF13877700619BBA8635669C
:1043C0001306863FB297E19B23A0070023A20700B4
:1043D0003387E74037E600901306C63C9CC2B7E837
:1043E000009037E8009037E50090B7040080D8C20D
:1043F00023A4F53C14C22322060023A0E83C232278
:10440000E83C232A953A55B5B249224A1DB713878D
:1044100006F3938606F365B7B249224A05B71DCD68
:10442000B7E7009083A7473B0327C5FFB376F700A4
:1044300089CE832685FF85C603C70181B707021889
:10444000A385E7000F00F00F01A003C70181B707A4
:104450000218A385E7000F00F00F01A08280011170
:1044600093C7F7FF06CEF98F232EF5FE2AC6EFE09D
:10447000BFE937E7009032458326473C8327C5FFD5
:10448000B69761152322F73CEFF0DFD937E70090AC
:104490008327873B8507232CF73AF24005616FF0AD
:1044A0004F9F411122C426C206C6045D3C412A84A6
:1044B00099EB1C4185040145A5CF04DCB2402244A0
:1044C0009244410182804AC032893E8663170902C4
:1044D0004841EF30A15E5C403840BA975CC0184458
:1044E000850463E4E7001C405CC00249B24004DC80
:1044F000224492440145410182804845EF30015CED
:1045000038405C44998F5CC414403307E04063F545
:10451000D7001C44BA975CC489476301F90285043B
:104520000249B24004DC22449244014541018280A8
:104530000844EFF02FDA2324040041B7DDF485446A
:104540006DB7011122CC06CE20452AC60DC8185CD5
:104550005C5C637DF70026CA185C8144636AF702DD
:10456000F24062442685D2440561828003C70181FE
:10457000B7070218A385E7000F00F00F01A003C7DB
:104580000181B7070218A385E7000F00F00F01A013
:104590004AC80349540401466C002285EFF07FF0BD
:1045A000620913598941FD57AA84630EF9009307E4
:1045B000F0076306F90293071900E207E187A302F7
:1045C000F404424971BF5C5099E3424951BF13055D
:1045D0004402EFF06FAF75D98544424951B703C724
:1045E0000181B7070218A385E7000F00F00F01A0B3
:1045F000411122C426C206C6AA844AC0EFC02FD2E7
:1046000083C754041394870161846353800413891E
:10461000440221A8EFF0FFF215E19307F4FF139491
:10462000870113F7F70F618405C7BC442685FDF3A6
:10463000DC504A8591CFEFF02FA965D1EFF06FBC28
:104640009307F4FF1394870113F7F70F618471FF49
:10465000FD57A382F404EFC00FD0EFC04FCC83C747
:104660004404139487016184635D8002138904010B
:1046700009A89307F4FF1394870113F7F70F6184D8
:104680000DC39C484A8591CFEFF00FA47DD1EFF088
:104690004FB79307F4FF1394870113F7F70F618463
:1046A0006DF3FD572382F4042244B2409244024940
:1046B00041016FC04FCA39C5411122C426C22A84A4
:1046C00006C6AE84EFC0AFC538405C5CB307F702E6
:1046D00014403387E740232C04027D563697B69763
:1046E0002302C40458C41CC454C0A302C40485E4F7
:1046F0001C48B1E3EFC02FC6B240224492440545A6
:104700004101828003C70181B7070218A385E70032
:104710000F00F00F01A013050401EFF02FD21305D5
:104720004402EFF0AFD1EFC00FC3B2402244924435
:1047300005454101828013050401EFF0EF985DD932
:10474000F32740F181EF371703188327C7FF93E75B
:104750001700232EF7FE0F00F00F69BF371703185D
:104760008A07BA97054798C30F00F00F61B711E9A0
:1047700003C70181B7070218A385E7000F00F00FF8
:1047800001A085C6797106D635CA8DC99307400543
:104790003ECE7248630DF80203C70181B7070218C5
:1047A000A385E7000F00F00F01A003C70181B70741
:1047B0000218A385E7000F00F00F01A003C70181D5
:1047C000B7070218A385E7000F00F00F01A0F2471A
:1047D0008547C8DEACC22383F60490C23685BE8509
:1047E0003AC636C4EFF03FEDA24632472388E604CE
:1047F000B25023A4060436854561828091E993076F
:1048000040053ECE7246E319F6F8F2473686C9B740
:1048100003C70181B7070218A385E7000F00F00F57
:1048200001A011E903C70181B7070218A385E700BA
:104830000F00F00F01A0011122CC4EC806CE4ACACB
:104840002A84B289A1E1130540052EC6EFF0BFA36B
:104850002DC5230305042A89B2452320A90023205E
:10486000B904232E890285454A85EFF0DFE4230849
:10487000390523240904F24062444A85C249524959
:1048800005618280B337B5023305B50291EF930716
:10489000B0FA63F6A70203C70181B7070218A38520
:1048A000E7000F00F00F01A003C70181B70702184E
:1048B000A385E7000F00F00F01A001496DBF1305AC
:1048C00045052EC6EFF03F9C2A89B2457DD52303CE
:1048D00005041305450551B711E903C70181B70761
:1048E0000218A385E7000F00F00F01A0411122C4B8
:1048F00006C62E84637BB50003C70181B707021883
:10490000A385E7000F00F00F01A009468145EFF0F5
:104910005FF111C100DDB240224441018280397152
:1049200006DE32C66304051222DC4AD84ED62A843B
:10493000AE893689638C050E8947631FF900585C80
:104940008547630BF70003C70181B7070218A385EA
:10495000E7000F00F00F01A0EFF00F8C630A0510C5
:1049600026DAEFC0CF9B185C5C5C6362F712894764
:104970006308F91452D456D25AD08147130A8101E0
:10498000FD54930AC100130B040139A8EFC0AF9C7A
:104990002285EFF0FFC5EFE0DFCFEFC04F98145C4A
:1049A000585C854763E2E60E324763060714D9CBAD
:1049B000EFC06F9AEFE05F95EFC06F9683474404B6
:1049C000E207E187639497002302040483475404B9
:1049D000E207E18763949700A3020404EFC0AF9756
:1049E000D6855285EFE0DFF8631E0510EFC02F93E8
:1049F000185C5C5CE31CF7F8EFC0EF95B2455A8594
:104A0000EFE03FE52285EFF0BFBEEFE09FC851F534
:104A1000F32740F1A9E7371703188327C7FF93E768
:104A20001700232EF7FE0F00F00F85BF3C41E385F2
:104A300007F003C70181B7070218A385E7000F003D
:104A4000F00F01A05285EFE05FF19DB703C7018130
:104A5000B7070218A385E7000F00F00F01A0371772
:104A600003188A07BA97054798C30F00F00F35B7A8
:104A7000B247E38707EE03C70181B7070218A38592
:104A8000E7000F00F00F01A0225A925A025B4A86FB
:104A9000CE852285045CEFF0DFA03C4495CB8947AE
:104AA0006309F9042285EFF0DFA915E5EFC0AF8AAD
:104AB00005456254F250D2544259B2592161828064
:104AC0004A86CE852285045CEFF0BF9D3C4495E389
:104AD0005C50A1EB61DDF32740F19DEB3717031824
:104AE0008327C7FF93E71700232EF7FE0F00F00F71
:104AF00075BFCDFC45BFEFC00F860145225A925AC3
:104B0000025B45BF2285EFF0BFAEEFE09FB8F5B77F
:104B1000371703188A07BA97054798C30F00F00F95
:104B200071B713054402EFE03FDA49D16DB779C997
:104B3000011122CC26CA4AC85AC006CE2A842E8B1E
:104B40003289B684A5C98947639FF400585C8547BC
:104B5000630BF70003C70181B7070218A385E700BD
:104B60000F00F00F01A052C456C2EFC02FC7B70705
:104B7000021883C6B70003C7018193FAF60FA38515
:104B8000E7000F00F00F185C5C5C6360F704894776
:104B90000145638CF402B7070218A38557010F0083
:104BA000F00FF2406244224A924AD2444249024BF8
:104BB000056182803C41C1DB03C70181B707021850
:104BC000A385E7000F00F00F01A04EC683495404EF
:104BD000DA8526862285E209032B8403EFF07F8C99
:104BE00093D98941FD576388F9029307F0076385DC
:104BF000F90493871900E207E187A302F40405454D
:104C0000B24951BF03C70181B7070218A385E70066
:104C10000F00F00F01A03C448DCB89476394F40052
:104C2000E31F0BFC2285EFF0DF9171D9E30909FC4A
:104C300085472320F900E1B703C70181B7070218B0
:104C4000A385E7000F00F00F01A05C50CDDB13053A
:104C50004402EFE07FC779F95DB725CD3C4191CBA8
:104C600003C70181B7070218A385E7000F00F00F03
:104C700001A0011126CC06CE4ACA1C41AE84BDC398
:104C80002AC6EFC0AFB5B706021883C7B60003C780
:104C9000018113F9F70FA385E6000F00F00F3245ED
:104CA0001C5D585D63FBE7040347550485076207F5
:104CB0001CDD6187FD57630EF7049307F00763045B
:104CC000F70693071700E207E187A302F5040545FD
:104CD00035A003C70181B7070218A385E7000F00BD
:104CE000F00F01A01C45C9DF03C70181B7070218F7
:104CF000A385E7000F00F00F01A00145B7070218D8
:104D0000A38527010F00F00FF240E24452490561EC
:104D100082803C4585C3EFF0DF8255D9CDD88547E9
:104D20009CC00545E1BF83C70181A385F6000F0044
:104D3000F00F01A05C51C1DF13054502EFE0DFB8C1
:104D400071FD054565BF397106DE32C66307051280
:104D500022DC52D42A842E8AC5C5EFE0FFCB45CD94
:104D60004AD8EFB0DFDB03298403631D091226DA7A
:104D70004ED656D2B247ADCB930981014E85EFE0B6
:104D8000DFBD930AC100FD54EFB0FFDCEFE0CFD7E9
:104D9000EFB0FFD883474404E207E18763949700AC
:104DA0002302040483475404E207E18763949700D5
:104DB000A3020404EFB03FDAD6854E85EFE05FBB77
:104DC00035E5EFB0DFD51C5CB5CFEFB0DFD822857D
:104DD000EFF01F82EFE0FF8BEFB07FD40329840355
:104DE000631F090AB247CDF3EFB0FFD60145D25495
:104DF000B259925A6254F2504259225A2161828029
:104E00003C41A1DF03C70181B7070218A385E70072
:104E10000F00F00F01A0B247A1D703C70181B70768
:104E20000218A385E7000F00F00F01A02285EFF024
:104E30002FFCEFE01F86EFB09FCE1C5CD5D7EFB004
:104E40009FD159BFEFB03FD1B24513054402EFE007
:104E50005FA02285EFF0CFF9EFE0BF8335FDF327A8
:104E600040F18DE7371703188327C7FF93E7170033
:104E7000232EF7FE0F00F00F85B703C70181B70798
:104E80000218A385E7000F00F00F01A037170318E1
:104E90008A07BA97054798C30F00F00F35BFD25461
:104EA000B259925A304001CE4C44B2954CC41C4485
:104EB00063E4F5000C404CC45285EF2031407D196D
:104EC000232C24031C4889E7EFB0FFC805451DB714
:104ED00013050401EFE05F9F65D9F32740F181EFEF
:104EE000371703188327C7FF93E71700232EF7FE12
:104EF0000F00F00FD1BF371703188A07BA9705477D
:104F000098C30F00F00FC9B7397106DE22DC26DA2C
:104F10004AD84ED652D456D22EC659C93C412A84BC
:104F200091CB03C70181B7070218A385E7000F00E3
:104F3000F00F01A0EFE05FAEAA8441C5814A814431
:104F4000930981017D59130AC100EFB05FBD1C5C5C
:104F5000639E0714B24763800714D5C4EFB0BFBF88
:104F6000EFE08FBAEFB0BFBB83474404E207E187AD
:104F7000639427012302040483475404E207E18772
:104F800063942701A3020404EFB0FFBCD2854E85D1
:104F9000EFE01F9E31E1EFB09FB81C5CADCFEFB0EA
:104FA0009FBB2285EFF0CFE4EFE0AFEE854471BF09
:104FB00003C70181B7070218A385E7000F00F00FB0
:104FC00001A0B247D9C703C70181B7070218A3855B
:104FD000E7000F00F00F01A02285EFF06FE1EFE096
:104FE0004FEBEFB0DFB31C5C9DE3EFB0DFB6639433
:104FF0000A060145F2506254D2544259B259225A1B
:10500000925A216182804E85EFE03F9581BFEFB0DB
:105010009FB485441DBFEFB01FB41C40A5C7B24567
:1050200013054402EFE0FF822285EFF06FDCEFE032
:105030004FE62DFDF32740F18DEF37170318832737
:10504000C7FF93E71700232EF7FE0F00F00F8544EC
:10505000EDBD814AF5B5EFB09FAC4C5089C51C58E9
:105060009C43A1459D8D0844EFE01FB0EFB0BFAE5B
:1050700049B7371703188A07BA97054798C30F002F
:10508000F00FF1B7EFB0BFA90844EFE0BF9AAA8ACA
:10509000EFB07FAC69B7E38B0AFC03C70181B707A8
:1050A0000218A385E7000F00F00F01A0FD171CDC1C
:1050B0001C4099C71C4889EBEFB0FFA905451DBFEF
:1050C000EFE03FB608C4FDB713050401EFE0CFFFE2
:1050D00065D5F32740F181EF371703188327C7FF02
:1050E00093E71700232EF7FE0F00F00FF1B73717E5
:1050F00003188A07BA97054798C30F00F00F6DBFD2
:1051000035C9011122CC26CA4EC606CE2A84AE84E9
:10511000B289B1C54AC856C252C4EFB03FEC370796
:1051200002188347B70083C6018113F9F70FA3055F
:10513000D7000F00F00F032A8403014563150A040A
:10514000B7070218A38527010F00F00FF240624451
:105150004249224A924AD244B249056182803C4186
:10516000D5DB03C70181B7070218A385E7000F004D
:10517000F00F01A003C70181B7070218A385E7005C
:105180000F00F00F01A05AC0034B4404620B3040E3
:10519000135B8B4111CA4C44B2954CC41C4463F55B
:1051A000F5042685EF2091117D1A232C4403FD5729
:1051B000630FFB009307F007630BFB0293071B00D1
:1051C000E207E1872302F4040545024B95BF1C4822
:1051D000E5DF13050401EFE02FEF7DD5E38609FE3F
:1051E000854723A0F900CDB70C404CC45DBF03C771
:1051F0000181B7070218A385E7000F00F00F01A097
:1052000019CD411122C42A8406C6EFB05F91005C1B
:10521000EFB07F942285B24022444101828003C7CF
:105220000181B7070218A385E7000F00F00F01A066
:1052300019C58347650491C382806FF04F9E03C7F1
:105240000181B7070218A385E7000F00F00F01A046
:10525000411122C426C24AC02A8406C6AE843289BD
:10526000EFB0FF8B83474404E207E1877D576394E7
:10527000E7002302040483475404E207E1877D57D3
:105280006394E700A3020404EFB0FF8C1C5C89CB9D
:1052900022852244B2409244024941016FF04FB549
:1052A000130544024A86A685EFE00FDE22852244DC
:1052B000B2409244024941016FF08FB303D685009A
:1052C00083D62501AE8732876373D6003687931560
:1052D000070183D64701C1816387B600239AE7009F
:1052E0009C4F91C382878280411122C406C61C470D
:1052F0003A8491CB1307F00F6373B700B94513F6E7
:10530000F50FA285829783476401FD1793F7F70F86
:10531000230BF400584419C791E722852244B24078
:1053200041010287B24022444101828008C2231217
:10533000B60001458280014582801D466F200178BC
:10534000411122C406C62E8485C2B685DC49D10629
:10535000584405EA1CC46393E6005CC423AA050014
:105360009C418146014682971C448DE3B70502208B
:10537000130514002244B240938585FA41016FF071
:10538000DFFB1CC2E39CE6FC50C4C9BFB240224410
:105390004101828039714AD881453289480071467D
:1053A00022DC26DA4ED606DEB6893A84EF20416644
:1053B000ED47E55463EE87004E94CE8463C28702C6
:1053C0004E86CA854800EF20616F4800EFB09035E7
:1053D000F250625426854259D254B25921618280DA
:1053E000CD54FDB741111D4606C6EF200153B24012
:1053F0001335150041018280411106C622C426C220
:105400004AC037E6009015C537E40090130944758B
:105410001306567583450900AA84EF70206493072C
:10542000447515C5B2402244924402493E8541016B
:10543000828037040220930584FA13055675EFF035
:105440007FFA15C5B7E7009093874775E1BF37E648
:10545000009013065676834509012685EF7000609B
:10546000814769D1B7E700909387477665BF37E5F5
:105470000090930584FA13055576EFF0BFF6CDB78B
:10548000011126CAB7E400904AC84EC683C7C47F3C
:1054900006CE22CC2A89AE899384C47F6399A70063
:1054A00037E500901305D57FEFF0DFF31DE983C7E3
:1054B000C4000144639F270137F50090CE85130592
:1054C0009580EFF03FF211C50544330480403188E8
:1054D00026942285F2406244D2444249B249056191
:1054E00082800144DDB7011122CC26CA4AC84EC6CB
:1054F00052C406CE2A8AAE893289B684EFF05FF8AC
:105500002A8419EDB7050220938585FAEFF05FF73D
:105510002A840DC123004501CE850505EFF0FFE18A
:10552000035784008357A40011EF99EF231424013B
:1055300023159400F2406244D2444249B249224ABF
:10554000056182806365E900E3F697FED5B7231411
:105550002401DDBF411122C426C206C64AC0AA8466
:105560002E84138615000DEDB7050220938585FA6C
:105570003285EFF03FE7228909ED1309A4001306F5
:10558000B40085C48345A4002685EF70204D11E149
:105590000149B24022444A85924402494101828035
:1055A00083C50500EF70804BF9B7B70502209385DE
:1055B00085FA3285EFF01FE3D9BF011156C206CE3E
:1055C00022CC26CA4AC84EC652C483AAC5005DEB87
:1055D0009387F6FFC207C18305472A89B6894D55CF
:1055E0006361F7022E8A834406006384E6008354D5
:1055F0000600D6854A85EFF0FFF52A8405ED99E887
:105600004E85F2406244D2444249B249224A924A0B
:1056100005618280D685EFF0FFF32A843D5575D071
:105620009305490513051400EFF03FD18347890026
:105630002300F40083A7CA018DEB83D74A0123140A
:10564000940063869700D6855285EFF03FC7CDF86A
:10565000B7050220938585FA13051400EFF0FFCDFE
:10566000230004002314040061BF2686D2854A85E6
:105670008297E34805F81307F5FF85474955E3FE90
:10568000E7FA41B76555B5BF411106C622C426C227
:105690004AC037F6009015C537F4009013094481CD
:1056A0001306568183450900AA84EF70203B9307B7
:1056B000448115C5B2402244924402493E854101CD
:1056C000828037040220930584FA13055681EFF097
:1056D0007FD115C5B7F7009093874781E1BF37F6B3
:1056E000009013065682834509012685EF70003726
:1056F000814769D1B7F700909387478265BF37F537
:105700000090930584FA13055582EFF0BFCDCDB715
:105710000F00300308410F0030028280AA872FA5B6
:10572000B7468280411122C405443314B400A285D7
:1057300006C6EFF0BFFE618DB24022443335A000B3
:1057400041018280AA872FA5B7668280411126C2B7
:105750004AC0AA842E8913050701ED5522C406C646
:105760003A84EFF03FFE630109042685EFF0DFF194
:10577000AA8525C11C4581CF9843014613054401E4
:1057800099C7639CA700A2862685EFF07FBB93078D
:10579000F00F63F4270339490DA0814611C3144368
:1057A0003E86BA873687E9BF8357C40099E71C4015
:1057B00081460146A285268582975C4099CB228648
:1057C0002244B2409375F90F268502499244410163
:1057D0008287B24022449244024941018280930769
:1057E00080F96384F5006FF07FF6828063F4B60081
:1057F0000145828001114AC806CE22CC26CA4EC677
:1058000052C42E8963F4C500054535A0AA84BE891B
:105810003A854284468A05EB639C0902835704005B
:105820000256FD172310F400CA852685029A835775
:10583000040091E30145F2406244D2444249B24936
:10584000224A056182808C40EFC0306571D56DBF02
:10585000DC44E39B37FBD9B741118945310522C4AC
:1058600006C63284EFD0201183578400B240231043
:10587000F5002244014541018280411191453105E5
:1058800022C406C63284EFD0000F83578400B24092
:105890002310F5008357A40022442311F50001458D
:1058A00041018280411122C426C24AC006C6B28488
:1058B00001441309C500DC406369F400B24022448E
:1058C00092440249014541018280131714009C440F
:1058D000BA9783D507004A850504EFD0A00D13744D
:1058E000F40FD1BF6FF01FFC011122CC06CE32881D
:1058F0002A84AE873A868328070099E985E22285C3
:105900006244F2400147814693F5F70F05618288B2
:105910001307F00FE375B7FEB947D5B73687C286D0
:1059200032C68298324622856244F2401C420147C8
:10593000814681450561828737E5009041118545A3
:105940001305C53D06C6EFF0FFDD15E1B7E6009093
:10595000B707009003D7063F93878754B705009099
:105960001386055663E8C70019C12398E63EB24086
:1059700041018280D043329742074183A107054508
:10598000C5B7797122D426D206D64AD04ECEAA8483
:10599000AE873A849DE1B285368685EA0328070002
:1059A00022862254B2500259F24926850147925468
:1059B000814693F5F70F4561028803280700130716
:1059C000F00FE37FB7FCB947E1BF4800EFC0507864
:1059D00085498357810063E0F9021C4022862685B1
:1059E0000147814681458297B25022549254025910
:1059F000F2494561828089454800EFD0C0020357D3
:105A00000500835781003A8963F3E7003E89420924
:105A100013590901930625001C404A8722868145B7
:105A200026858297CA854800EFC0F07F5DB7411197
:105A3000B705022022C4938585FA2A84050506C687
:105A4000EFF0BF8F8147230404001307C400AF2782
:105A5000F70EB240224441018280011122CC4AC893
:105A600006CE26CA4EC6D8458357370083D60501D1
:105A700095072A892E846392F6029384C500835980
:105A8000170095452685EFC0D078CE852685EFC0D6
:105A9000F074ED452685EFC05076A2854A85EF402B
:105AA000E02BAA84635505002285EFD0C027F24081
:105AB000624426854249D244B2490561828041113F
:105AC00026C2B7E4009006C622C483A7843D9DC3C6
:105AD00085450145EF70203A83A5843D2A84EFF087
:105AE000DFF7228523AC043C2244B24092444101BA
:105AF0006F60C044B240224492444101828008C297
:105B000001458280411122C41304C50091452285BC
