:020000042000DA
:100000006F00001CBA060020BA060020640700201A
:10001000BA060020BA060020BA060020D01100203F
:10002000BA060020BA060020BA060020BA06002050
:10003000BA060020BA060020BA060020BA06002040
:10004000BA060020BA060020BA060020BA06002030
:10005000BA060020000000000000000000000000C0
:100060000000000000000000000000000000000090
:100070000000000000000000000000000000000080
:100080000000000000000000000000000000000070
:100090000000000000000000000000000000000060
:1000A0000000000000000000000000000000000050
:1000B0000000000000000000000000000000000040
:1000C000BA06002000000000000000000000000050
:1000D0000000000000000000000000000000000020
:1000E0000000000000000000000000000000000010
:1000F000BA060020BA060020BA060020BA06002080
:10010000BA060020BA060020BA060020BA0600206F
:10011000BA060020BA060020BA060020BA0600205F
:10012000BA060020BA060020BA060020BA0600204F
:1001300000000000000000000000000000000000BF
:1001400000000000000000000000000000000000AF
:10015000000000000000000000000000000000009F
:10016000000000000000000000000000000000008F
:10017000000000000000000000000000000000007F
:10018000000000000000000000000000000000006F
:10019000000000000000000000000000000000005F
:1001A000000000000000000000000000000000004F
:1001B000000000000000000000000000000000003F
:1001C00073700430971100709381C18517E200703D
:1001D000130242D5170104701301C1E293020020FB
:1001E00073A0027D970200009382C2E17390723087
:1001F00097020000938202457390C27E73E0C07E36
:100200009702000093820210739052309302F00321
:1002100073B0523073E05130996273B0023089622A
:1002200073A0023073F00232170500001305851128
:1002300097050000938505116300B50217D60500E8
:10024000130686A763FAC5008322050023A0550084
:1002500011059105E3EAC5FE17D50500130505A6AE
:1002600097050070938505DA6300B50217E6007004
:10027000130646CB63FAC5008322050023A0550070
:1002800011059105E3EAC5FE17E50070130585C960
:10029000976501709385856A6377B5002320050013
:1002A0001105E36DB5FEEF108055177500001305BD
:1002B00005E3EF600010EF60705CEF10C05997022B
:1002C000000093822230739052309302F00373B097
:1002D000523073E05130014581459D20EF10A05D03
:1002E00001A0130000001300000013000000130021
:1002F00000001300000013000000130000000100C4
:0803000073005010F5BF00006E
:10034000411106C6EF102036EF30A05315E937D51E
:100350000020130505DBEF302044EF302072B7D5C5
:10036000002037150020938505DC014785461306DC
:1003700000401305858AEF30806DEF30407001A09A
:10038000AA8537D500201305C5D9EF30E040C5BF99
:10039000411122C4176401701304445206C6A28797
:1003A00097660170938686597D5798C3A107E39E8F
:1003B000D7FE814517D500001305854CEFC04031AD
:1003C00093173500A2979C439305106017D5000042
:1003D0001305054B1CC09767017023A3074EEFC0A0
:1003E000202F93173500A2979C439305902017D593
:1003F00000001305E5481CC49767017023A6074C4D
:10040000EFC0002D93173500A2979C43B2401767A9
:100410000170232F074A1CC822444101828035C93C
:10042000ADC901114AC837E90090832749F206CEC9
:10043000BDE326CAB7E4009083C704F2B9EF22CC2B
:100440004EC62322A9F22380B4F201449309C002CC
:1004500031A89C4385C3829705049377F40F1DE16F
:1004600003C704F263F0E702032549F27F1534C5A0
:100470005C45E5F36244D244B2490945F240424941
:10048000056182806244F240D244B249424905612A
:1004900082800D4582807D55D5B7D2447D55F9BF08
:1004A000B7E7009003C707F2AA87637BE50037E749
:1004B0000090032547F21307C0027F95E7C48280AE
:1004C0000145828009C55C45DC4381C782870D45B3
:1004D00082801D45828009C55C45DC4F81C78287CB
:1004E0000D4582801D45828009C55C459C5381C7AE
:1004F00082870D4582801D45828009C55C45DC539D
:1005000081C782870D4582801D4582801DC50947B0
:100510006301E6020D476305E60019C63A8582804D
:100520005C459C5F89C782875C45DC5FEDFF1D45AC
:1005300082805C45DC5BE5DF82870945828009C5F6
:100540005C45FC4381C782870D4582801D458280C2
:1005500009C55C45FC4781C782870D4582801D45E2
:10056000828009C55C45BC4B81C782870D4582806E
:100570001D45828019C55C45FC4F91C762066186A6
:1005800082870D4582801D45828009C55C45BC532C
:1005900081C782870D4582801D45828009C55C45E3
:1005A000BC5F81C782870D4582801D45828009C559
:1005B0005C45FC5F81C782870D4582801D45828036
:1005C000731191345D7106C012C216C41AC61EC8DA
:1005D0002ACA2ECC32CE36D03AD23ED442DC46DEC7
:1005E000F2C0F6C2FAC4FEC673D0E57E7350F67E42
:1005F00073D0B67E732520348A85EF106020D252E6
:100600007390427CC25273901234B252739022346F
:1006100082401242A2423243C2435245E2457246F0
:1006200082561257A2576258F258064E964E264FDF
:10063000B64F6161731191347300203001000000E6
:10064000731191345D7106C012C216C41AC61EC859
:100650002ACA2ECC32CE36D03AD23ED442DC46DE46
:10066000F2C0F6C2FAC4FEC673D0E57E7350F67EC1
:1006700073D0B67EF390D07E73700430D2527390F4
:10068000427CC25273901234B25273902234824030
:100690001242A2423243C2435245E245724682565A
:1006A0001257A2576258F258064E964E264FB64F32
:1006B0006161731191347300203001A013000000B8
:1006C00097020470938202947390023417E10070D1
:1006D0000321018E02418242739012341260A260A3
:1006E0003261C2615262E262726382731274A274F6
:1006F0003275C2755276E276727786671668A6689A
:100700003669C669566AE66A766B867B167CA67C75
:10071000367DC67D567EE67E767F8A6F0961D6522B
:10072000739002309240A2423243C2435244E244A8
:10073000724582551256A2563257C2575258E25845
:1007400072598649164AA64A364BC64B564CE64C59
:10075000764D865D165EA65E365FC65F1301810725
:1007600073002030130181F806C216C41AC61EC8D1
:1007700022CA26CC2ACE2ED032D236D43AD63ED871
:1007800042DA46DC4ADECEC0D2C2D6C4DAC6DEC801
:10079000E2CAE6CCEACEEED0F2D2F6D4FAD6FED851
:1007A000F322003096DA197102E206E40AE60EE856
:1007B00012EA16EC1AEE1EF022F226F42AF62EF8B1
:1007C00032FA36FC3AFEBEE0C2E2C6E4CAE6CEE841
:1007D000D2EAD6ECDAEEDEF0E2F2E6F4EAF6EEF891
:1007E000F2FAF6FCFAFE7EE197D2007083A2427C18
:1007F00023A02200F322103416C0EF00301797D246
:10080000007083A2E27A03A1020082427390123444
:100810001260A2603261C2615262E26272638273EC
:100820001274A2743275C2755276E2767277866758
:100830001668A6683669C669566AE66A766B867B6C
:10084000167CA67C367DC67D567EE67E767F8A6FD8
:100850000961D652739002309240A2423243C243A1
:100860005244E244724582551256A2563257C2573C
:100870005258E25872598649164AA64A364BC64B18
:10088000564CE64C764D865D165EA65E365FC65FBC
:10089000130181077300203001000145828037D5A4
:1008A0000020130545AE8280011106CE22CC02C283
:1008B00040002322040023240400D537EF10000059
:1008C000EF20307C35ED2285EF106000EF20707B4B
:1008D00051E5924599C537D50020130505B3EF20A2
:1008E000B06B37D500201305C5B3EF20F06A1305B0
:1008F0000002EF20104C0566B7D500203715002008
:1009000013060680938545B601479146130585C2B7
:10091000EF30E0130566B7D5002037150020130629
:100920000680938505B701479546130565C6EF30E8
:1009300000120145EF304014F240624405618280AC
:10094000AA8537D500201305C5AFEF20F064014517
:10095000EF308012F240624405618280B7D70020F8
:10096000AA85138587B1EF2030630145EF30C010B1
:10097000F240624405618280D5476384F5000145F9
:1009800082805D7186C6CAC05AD8EF302011B7E7A1
:10099000009003AB47F437E90090EF3060108327F5
:1009A00009F463FA671F56DAB7E6009037E700905C
:1009B000A16AA2C4A6C24EDE52DC5ED66AD06ECE5A
:1009C00062D466D293860601130D0733FD1A37E40D
:1009D000009037EA0090B7E4009093091003B7EB5A
:1009E0000090DA8D032744F31306170063F3C90060
:1009F00001469207EA97884783A8070003A84700A3
:100A0000CC471207B387E60003270AF388C7232AD7
:100A1000C4F223A0170123A20701CCC703A5C4F287
:100A200063F1E918050523A6A4F283A78BF2130747
:100A3000A004B307F540637FF712032644F3617304
:100A4000B783EB51130C26031A8E9A889383F351C4
:100A5000D68F568FD682814E0148130B20036EC667
:100A6000B3377602918332877F9767C79317470022
:100A70003387F600831D27008315070003572700DF
:100A800093DDFD4093DCF54033C7ED003307B741FC
:100A9000B3CD9501B38D9D41C20D420793DD0D018C
:100AA00041832E986353B7016E87B385F600839C0C
:100AB000450083D5450093DCFC40B3C5BC00B3853D
:100AC0009541C205C1816353B7002E8763D3EE0001
:100AD000BA8E3387F6000317670063535700BA8254
:100AE00063D3E800BA883387F6000317870063539F
:100AF000E7013A8F6353EE003A8EB6978397A700CB
:100B000063D3F701BE8F6353F3003E830506E319F9
:100B1000CCF49357F84133C607011D8E9D67938728
:100B200007D6B24D330EEE4163D8C7088567938769
:100B3000479C63D1C7056350000F37D600201306CA
:100B400046B81307803EB787EB51B305E50293879C
:100B5000F751B3B5F50237D500209181130585B95A
:100B6000EF20904383A7C4F223A4FBF2B7E70090E1
:100B700093860701832709F485072320F9F4E3E32B
:100B8000B7E726449644F259625AD25AB25B225CC5
:100B9000925C025DF24DB6400649425B01456161DF
:100BA0008280050705052328EAF223A6A4F293070D
:100BB0002003E311F7FC95BDB3875840F297330348
:100BC000F34113A7DE449A9705E305671307C75758
:100BD000635CF70099679387771AE3CDC7F837D638
:100BE0000020130686B8B1BF916513A79E119385A7
:100BF00005E8133717003326B600718F25DF056728
:100C00009387F79B1307B7F3E3F6E7F637D6002091
:100C1000130606B93DB737D600201306C6B715B779
:100C2000814541456F20207EB715002041119385F5
:100C300085972D4506C6EF20606719C922C4AA858D
:100C40002A845545EF20900D2285EF20B02DEDBF71
:100C500037D50020130545BAEF201034B2400145C6
:100C600041016F207061B71500204111938525EB7C
:100C7000154506C6EF208063630B050EAA8522C4C6
:100C80002A84414526C2EF20700913054006EF2053
:100C9000505F0145EFF0DF80B7E4009023A4A4F497
:100CA0006302050E8545EFF09F906318051E03A5AE
:100CB00084F4EFF03F816316051C03A584F4EFF084
:100CC0009F816314051A03A584F41D47930620032E
:100CD0000146A145EFF05F81631D051603A584F46D
:100CE0001D479306200301469305007DEFF0FF802A
:100CF000631505140D4603A584F4B285EFF01F813A
:100D00006311051203A584F493051003EFF03F83EC
:100D1000631D050E03A584F405469305000CEFF052
:100D20003F836318050C03A584F4EFF09F8355E51A
:100D300003A584F4814631468545EFF01F8551E1D6
:100D4000B7160020054603A584F4938606C2B28533
:100D5000EFF0DF8439E937D50020130545D193053D
:100D60002003EF2070232285EF20D01BEDBF37D565
:100D70000020130545BCEF203022B240014541015F
:100D80006F20904F37D50020130505BEEF20D020EF
:100D900037D50020130585D3EF201020224492443C
:100DA000B240014541016F20304DB7D70020B7D583
:100DB00000202A86938585CF138547C1EF20D01D5B
:100DC000C1BFB7D70020B7D500202A86938505CEAE
:100DD000138547C1EF20501C65BFB7D70020B7D59A
:100DE00000202A869385C5CC138547C1EF20D01AF1
:100DF00045B7B7D70020B7D500202A86938545CBC5
:100E0000138547C1EF20501961B7B7D70020B7D578
:100E100000202A86938505CA138547C1EF20D01785
:100E200085BFB7D70020B7D500202A86938585C80F
:100E3000138547C1EF205016A1BFB7D70020B7D503
:100E400000202A86938505C7138547C1EF20D0145B
:100E500081B7B7D70020B7D500202A86938585C5EE
:100E6000138547C1EF20501325B7B7D70020B7D55A
:100E700000202A86938585C3138547C1EF20D011B2
:100E800001BFB7D70020B7D500202A86938585C239
:100E9000138547C1EF205010E5BDB7D70020B7D567
:100EA00000202A869385C5BF138547C1EF20D00E49
:100EB000C5B5697123261112231F010041476387BD
:100EC000E5008320C1120145556182802EC41306BE
:100ED000001081450810EF60A023B7E7009003A53C
:100EE00087F4A2479306E1013E860C10EFF08FE8ED
:100EF0000356E1012A8363100510630E060E856F09
:100F00003788B8ED93080102938FFF8013080832E9
:100F100037EF0090B702009029A00503C108635085
:100F2000C31483274FF4E3EAFFFE03274FF4B7E728
:100F3000009083AE080083A54800120703A688002E
:100F400083A6C800B7E3009093870733BA9703AE30
:100F5000C3F323A0D701CCC3216590C7D4C783A70F
:100F60000222930E0E01F2851305F5CF0147636C43
:100F7000B50A3387C541469703470700A146B98F95
:100F80001396F7011357F641337707018583FD1652
:100F9000B98FFDF685050547E39BD5FD23A0F22219
:100FA00023AEB3F237E70090834787F381EBA16765
:100FB00083A6C3F39387F7CF63E1D70846C61AC465
:100FC000EF20D02D37EF009083274FF485072322A1
:100FD000FFF4EF20F02CB787B8ED13880732856750
:100FE0000356E101B2482243B7020090938FF78085
:100FF00037EF00901DB737D500209A851305C5D669
:10100000EF208079B7E70090054603A587F4B7166F
:101010000020938606C2B285EFF04FD88320C1121C
:101020000145556182803DDF37E70090834687F3B5
:1010300023A0F22223AEB3F2D1F283A5022237D548
:101040000020854793C5F5FF130505D546C61AC48C
:10105000230CF7F2EF204074B248224385B7814554
:101060005545EF20003A79BFB7070090411103A71B
:101070008722B706009002C6FD5783C64622630941
:10108000F700B7070218A385D7000F00F00F01A0E3
:10109000B7070218A385D7000F00F00FB24799E7F2
:1010A00073F0008173005010B247FDDB4101828074
:1010B00041111167B717002022C426C206C61307C4
:1010C0000788938787062A842322C5FAAE84232EB5
:1010D000E5FE2326F5F8130600081305C5F0814543
:1010E000EF600003130584F0232494F0B2402244FF
:1010F0009244410182803706009083474622B7061A
:101100000218A385F6000F00F00F37070090832721
:10111000872285072324F72205476383E70082801F
:1011200003C7B60083474622E38BE7FEA385F6009C
:101130000F00F00F01A0370700908327872281EF6F
:10114000B707009003C74722B7070218A385E70037
:101150000F00F00F01A0FD172324F72299E7B7072E
:101160000218A38507000F00F00F82804111B70716
:10117000009003C7472206C6B7070218A385E700F9
:101180000F00F00FF32740F19DE337170318832773
:10119000C7FFF99B232EF7FEEF30F002B7070218C6
:1011A000A38507000F00F00FB2404101828037177E
:1011B00003188A07BA97014798C3EF30D000B707E2
:1011C0000218A38507000F00F00FB2404101828092
:1011D0000111B707009003C7472206CEB7070218D0
:1011E000A385E7000F00F00F612BB787EB519387C2
:1011F000F751B337F5023707031895831107B70680
:101200000318104332C2904232C418433AC6124601
:1012100032476304E600944236C4B246A2453386A0
:10122000B7003337F600369763FAE606F32740F146
:10123000A1C7B75603188E07B697FD5694C3938679
:10124000470098C290C3EF30603911CDF32740F1C9
:101250009DEF371703188327C7FF93E71700232E47
:10126000F7FE0F00F00FB7070218A38507000F0065
:10127000F00FF24005618280B7070318A107FD5601
:1012800094C3B7060318B10698C290C36DBF371751
:1012900003188A07BA97054798C3E1B76314D700C4
:1012A000E3E6C5F881463706031814C21307460063
:1012B00014C314C2732740F119EB930686007D56C0
:1012C00090C237060318310618C29CC2ADBF37560C
:1012D00003180E0732977D5610C31306470014C239
:1012E0001CC395B7011106CE6129B787EB519387CF
:1012F000F751B337F5023707031895831107B7067F
:101300000318104332C2904232C418433AC6124600
:1013100032476304E600944236C4B246224733069D
:10132000F7003337E6003697F32640F16395061849
:10133000B7060318A106FD558CC2B7050318B10501
:1013400098C190C2371702188346E70193F6E60F5B
:10135000230FD7008346E70193F6F60F230FD7003C
:10136000B706021803C7060005833D8BD44205C7A4
:10137000D582BD8A3686636FD714B716021803C7A5
:10138000F6013317C7001377F70F3357C7401377AA
:10139000F70FA38FE600B716021803C7D60113672D
:1013A0001700A38EE60037060318814614C2130700
:1013B000460014C314C2732740F17DE393068600F0
:1013C0007D5690C237060318310618C29CC23717E3
:1013D00002188347D70193F7E70FA30EF7003707EB
:1013E0000218834707008583BD8B584385C7558303
:1013F0003D8BBA8663EEE70C371702188347F70177
:10140000B397D70093F7F70FB3D7D74093F7F70FFA
:10141000A30FF700B717021803C7E7011377E70F09
:10142000238FE70003C7E7011377F70F238FE70048
:1014300003C7D70113671700A38EE70003C7E700B0
:101440001377E70F2387E70003C7E7001367170049
:101450002387E70037070218834707008583BD8B82
:10146000584385C755833D8BBA8663E1E706371736
:1014700002188347F700B397D70093F7F70FB3D756
:10148000D74093F7F70FA307F700371702188347E2
:10149000D70093E71700A306F700F24005618280AA
:1014A000375603180E0732977D5610C313064700B0
:1014B00014C21CC329BFB75503188E06AE96FD553E
:1014C0008CC29385460098C190C2ADBDBE8645B71B
:1014D000BE861DB73A8655B501113707021806CEEC
:1014E00022CC26CA83470700584385835583BD8B8A
:1014F0001376F700BE866373F600B2868547B3970E
:10150000D700FD172147158F13F6F70F9D46137768
:10151000F70FB704009063F3C600B6878546B3960D
:10152000E60093F7F70FFD16B397E700D58F2382F8
:10153000F4223707021883470700584385835583F1
:10154000BD8B9375F700BE8637E6009063F3F50018
:10155000AE868547B397D700FD1793F6F70F1D4763
:101560006373D700BA872306F6F4737004309D3B8B
:10157000B7E700900547370400902382E7F623245D
:101580000422EFF0EF93EF3000440327842202C6D9
:10159000FD57630BF70003C74422B7070218A38562
:1015A000E7000F00F00F01A003C74422B70702189D
:1015B000A385E7000F00F00FB24799E773F00081B1
:1015C00073005010B247FDDBF2406244D244014543
:1015D00005618280F327203463CD0700B7070090B0
:1015E00003C74722B7070218A385E7000F00F00FD3
:1015F00001A0D207D18345476371F7063706021869
:101600000347060005833D8B544221CB9387074057
:101610008A073E96D58283473600BD8A93F7F70F37
:1016200013F6F60FB7E500906374D7001376F70F43
:101630002147118FB3D7E74093F7F70F03C7C5F4DE
:10164000637DF700B707009003C74722B70702186A
:10165000A385E7000F00F00F01A0828001456FB065
:10166000A55E37D500201305C5DC6F50F010138739
:10167000C10818C19387C1C89CC1930700101CC240
:101680008280138781C1B707009018C19387872391
:101690009CC1930700101CC2828037D5002013051F
:1016A000C5DE6F50700D014582803971A16726DA61
:1016B0006C08AA841305000206DE3ECE22DC4AD85E
:1016C0004ED6152472443309940237460F00333442
:1016D00094021306062481464A85A285EF802028BD
:1016E00037460F00AA84AE894A85A28513060624D0
:1016F0008146EF80E05D4D8D49C113891400B334FC
:10170000990033843401B70703189107370703188A
:10171000944336C4144336C69C433EC8A246C247CF
:101720006384F60018433AC6B70603184248910688
:10173000B705031832459C423ECA9C413ECC9C42B0
:101740003ECE5247F2476304F7009C413ECCF2473D
:1017500062473306A7403337C700B3870741998FE5
:10176000E3EB87FC6314F400E36726FDF250625458
:10177000D2544259B2592161828026894E8461B780
:101780000111A1676C001305000206CE3EC6A12A16
:10179000F24032450561828009BF411106C622C46C
:1017A00026C24AC0F32520347329907CF3241034D8
:1017B0007324303437D500201305C5DFEF50C07BCC
:1017C00037D50020CA85130545E1EF50E07A37D5BB
:1017D0000020A6851305C5E2EF50007A37D500201A
:1017E000A285130545E4EF502079EF20006BAA8510
:1017F00037D500201305C5E5EF50007801A08280A1
:101800008567FD173377F500AD4663E1E602B767FC
:101810000190938707430A07BA979C438DC74111EC
:1018200006C68297B240014541018280630FF700EE
:101830004111B717002006C69387A7798297B24057
:1018400001454101828001458280B767019083A7ED
:101850000746F1F7CDBF73E0A07CC16773A0A77CFA
:101860000F00F00F0F100000B76701909387074338
:1018700037170020938647031307A77998C391076A
:10188000E39ED7FEB7070218A3850700D84383C697
:10189000070093F6160E2380D700518383C60700F6
:1018A000798B558F2380E700996773B0073089677C
:1018B00073A00730828082808280828019C5B7E75A
:1018C000009023A8A7F40145828009458280B7E7EC
:1018D000009083A707F591C79C4391C38287014578
:1018E000828009458280B7E7009003C747F5AA8741
:1018F00019CF0D4563FEE70037E70090032787F512
:10190000D1467F97D7C401455C439CC18280054581
:1019100082801DC11C498DC383C7B70021476389DD
:10192000E70031476381E70215476389E70089478C
:101930002380F500014582800D45828091472380F8
:10194000F50001458280C1472380F500E5B71335D6
:101950001500FD573305A0402380F5000D898280D6
:101960004111154522C426C206C6B28436842D35DF
:10197000B70700909387C7042382970080C7B240BF
:101980002244924401454101828015CD411122C477
:1019900006C62E84154599E90135B7070090A3883E
:1019A0008704B2402244014541018280F533154548
:1019B000EF20200DB7070090A3888704B24022448F
:1019C0000145410182800D4582801DC11C498DC3A6
:1019D00003A7970098C103A7170118C203D797015F
:1019E00001452390E60083C7B7012381F60082807A
:1019F0000D458280B706009093878603D84305077C
:101A0000D8C303C60700930500046303B606930515
:101A1000000C6308B60037D50020130505E76F10EA
:101A2000B0574D46B285354863FAE5003707009058
:101A30001307C7020843410508C3CCC3370700900A
:101A40001307C704834547009DC19C478A07B3D746
:101A500007039386860393F7F70F93F5F70F636EEB
:101A6000F600DC4263E5B7001C4791C382878280A1
:101A700013064002B2851D4845BF9375F60FDC4240
:101A8000E3E7B7FED5B71DCD411122C426C206C675
:101A900004492A8495C8C84009CD1C4199C73E8590
:101AA000EF20A021C84023200500EF20002123A221
:101AB00004002285EF2060200145B2402244924478
:101AC000410182800D4582800D45C5BF5DC5011174
:101AD00026CA06CE1C49AA84DDC322CC83C6D70001
:101AE00045476385E6064AC84EC603C75701D54732
:101AF00013F9F50F01448549631DF700B1A0638414
:101B00003707050405451374F40FEF109077630F42
:101B10002401DC4CDC43E5F74145BD3905040545AE
:101B20001374F40FEF10F075E31524FF4249B24926
:101B3000B707009003C51705134515001205624449
:101B4000F240D244056182804249B249DC4CC04334
:101B500011CC8547E31EF4FC1395350035392285F9
:101B6000EF103072F1B72145053961BF139545007B
:101B700025310545EF10F07065BF0D4582800D459C
:101B8000C1B719C1854599B70D45828005C141117D
:101B900022C42E84854506C6153F09E5B707009087
:101BA00023A08704B2402244410182800D458280F7
:101BB00001CD4111854506C6113FB7070090B240DF
:101BC00023AE0702410182800D4582800DCD411177
:101BD0005C4D22C4D84306C685472E846302F702B3
:101BE00013050002553EB707009083C7170541450E
:101BF00081C7231004000145B24022444101828084
:101C00004145593ECDB70D45828039C141115C4DEA
:101C100022C4D84306C685472A84630FF70041458E
:101C2000A53EB707009083C7170591CF22852244B0
:101C3000B2408545410159BD2145B93EB7070090E5
:101C400083C71705E5F7B240224441454101828030
:101C50000D45828039C141115C4D22C4D84306C66E
:101C600085472A84630FF70041453D36B70700904A
:101C700083C7170591CF22852244B2408545410193
:101C8000B1B52145113EB707009083C71705E5F7A9
:101C9000B24022444145410182800D45828049C1C4
:101CA000411126C206C60449BDC45C4D22C4D843B6
:101CB00085472E846304F7044145F93CB70700903B
:101CC00083C717054145B9C323100400230104004D
:101CD00083C71401AD17B337F0008507A300F400E4
:101CE00083C79400BD17B337F00085072300F400C5
:101CF0002244B24092440145410182802145693C21
:101D0000B707009083C717054145DDFF2244B24065
:101D1000924441018280B24092440D45410182804B
:101D20000D45828059C9411122C426C206C6044904
:101D30002A84B5CC5C4DD84385476306F706130566
:101D40000002EFF07FA5B707009083C71705414554
:101D5000A5C31C48A9CF83C6270135476369D704AB
:101D600083C6470109476364D70403C73701914716
:101D700063EFE70285452285913B1DE903C72401F6
:101D800083C74401238BE400238CF400854522851E
:101D9000353B19ED83C73401A38BF400B2402244D4
:101DA0009244410182804145EFF01F9F69BF0D457C
:101DB000B24022449244410182800D45828051C943
:101DC000411122C426C206C604492A84ADCC5C4D0A
:101DD000D84385476305F70613050002EFF0DF9B44
:101DE000B707009083C717054145B9CF1C48A1CF5D
:101DF00083C6A70031476368D70403C6C7009D4662
:101E000063E3C60483C7B700636FF7028545228585
:101E100075391DE903C7A40083C7C4002387E40004
:101E20002388F40085452285553119ED83C7B40018
:101E3000A387F400B240224492444101828041458C
:101E4000EFF09F9571BF0D45B2402244924441018D
:101E500082800D4582806309050E411122C406C6A9
:101E6000937717002A84BDE3937727008DEB118BBE
:101E700059E32285453D05E15C4CD8438547630F16
:101E8000F7064145EFF05F91B707009003C51705CE
:101E9000134515001205B240224441018280930788
:101EA0002003639FF6021C48118BE1D79D462389CE
:101EB000D70061D305476373C7068946630BD6060F
:101EC00011476365C706238A070065B71C49C9DF48
:101ED0001305D0076368B5029145A389B70069B7B8
:101EE00037D50020130505EBEF10100BB24022444C
:101EF0000D45410182801C48D5FFA5BF2145EFF06B
:101F0000BF8959B71305A00F637EB5001305401FA5
:101F10006364B5028945A389B700B9B70947238A25
:101F2000E70081BF8D45A389B7003DBF238AD70055
:101F300089B7238AE70035BF1305803E6368B50083
:101F40008545A389B7000DB70D458280A389070099
:101F500021BF011106CE2EC63DC993D7050122CC63
:101F600093F7F70F2A840D456365F5045C4CD8435D
:101F700026CA85476303F70413050003EFF0DF81EA
:101F8000B70400909384C40483C754009DCB5C4C79
:101F9000D84385476301F7044145EFF0EFFF83C75E
:101FA000540085C322856244D244F2408D450561C8
:101FB00031BE6244F240056182806145EFF0CFFDA1
:101FC000C1B76244F240D244414505618280F2408B
:101FD0000D45056182802145EFF00FFCC9B7411125
:101FE00006C626C22DC9854522C42A84EFF01FAE3D
:101FF000AA840545EF10F02895EC5C4CD843854742
:102000006300F7041C489DC7B71603023717000288
:102010009386068113074781A3A4D700A3A8E700EE
:10202000A3A6D700A3AAE7002244B2402685924483
:10203000410182802244B24026859244410182803F
:102040002145EFF06FF5B707009083C71705DDFB5B
:10205000C1442244D9BF8D44B240268592444101F7
:10206000828063080510411122C406C693771700C9
:102070002A84B5E3937727008DEB118B49E3228502
:102080003D3B05E15C4CD8438547630DF706414570
:10209000EFF08FF0B707009003C517051345150043
:1020A0001205B24022444101828093072003639DC0
:1020B000F6021C48118BE1D79D462385D70061D3DA
:1020C0001D476361C70A37E700201307C78A0A065E
:1020D0003A96184202871C49D1DF09456368B50268
:1020E0008D45A385B70079B737D50020130545EF97
:1020F000EF10806AB24022440D45410182801C48A5
:10210000E1F3B5BF2145EFF02FE969B71145637CD5
:10211000B5002145637CB50441486369B804B14505
:10212000A385B70081BF9545A385B700A1B71D471B
:102130002386E700A9B719472386E70089B7154723
:102140002386E7002DBF11472386E7000DBF0D470B
:102150002386E7002DB705472386E7000DB72386C2
:10216000070031BF09472386E70011BFA385A700F9
:1021700011B70D458280011106CE4AC86308050ECD
:1021800022CC4EC6832905012A846388090883A7C7
:102190004900C1C75C4D26CAD84352C48547AE84A6
:1021A0003289630DF7084145370A0090EFF0CFDE22
:1021B000130ACA0483475A00C1CF91C433362001A1
:1021C0003306C040F18C85452285EFF03F902A8987
:1021D00029ED5C4CD84385476306F7084145EFF08D
:1021E000AFDB83475A00ADC783A7490013F7040E3E
:1021F00041468988A383C7002384E700238397008F
:10220000B70600906244F240238CE602D244B24901
:10221000224A4A854249056182800D496244F24062
:10222000B2494A854249056182806244F240D24403
:10223000B249224A4A854249056182802145370ACE
:102240000090EFF06FD5130ACA0483475A00B5F720
:1022500041496244F240D244B249224A4A85424945
:10226000056182802145EFF02FD3A5BF0D49F240D3
:102270004A8542490561828071CD411122C426C23E
:1022800006C604492A84C1C403C79400930707FF04
:1022900093F7F70F894663ECF60683C7D40063957E
:1022A000E70203C714019307C7FE93F7F70F8D46A4
:1022B00063EFF60483C7540101456390E706B2401B
:1022C00022449244410182805C4DD8438547630F8C
:1022D000F7064145EFF04FCCB707009083C71705CD
:1022E0004145F1DF03C79400C9476307F7088545F7
:1022F0002285EFF0AFFD61F503C7D400C147630845
:10230000F70883C79400A386F4000448D9F8B240C4
:10231000224492440D454101828022858545EFF09B
:10232000EFFA1314850183C7540151476184638E0A
:10233000E702DD4603C714016380D702A38AE400E5
:102340002285B24022449244410182802145EFF02F
:10235000AFC459B70D458280D547E311F7FE294533
:10236000EF10207203C71401D1BF13051005EF1041
:10237000407103C71401D9B785452285EFF00FF5E9
:102380001DFD89452285EFF06FF415F98DB71545D0
:10239000EF10206FBDB759CD011122CC4EC606CE2D
:1023A000832905012A846389090826CA4AC8B68494
:1023B0003289B9C19C41A3A4F900EFF05FA031E5D7
:1023C000631D0902B9E82285453D21E15C4CD843F3
:1023D0008547630DF7044145EFF00FBCB707009048
:1023E00003C51705F240624413451500D244424923
:1023F000B24912050561828005C283270900A3A89E
:10240000F9002285EFF01F9255DDD2444249F24097
:102410006244B2490561828095C283D70400A39CBF
:10242000F90083C72400A38DF90071BF2145EFF0A7
:10243000AFB66DB70D4582800D45D1BF0D45D24475
:102440004249F1B71DCD0C498DCD83C79501BD8B98
:10245000B70608023707000293860661614693E7D4
:10246000070713074761A3A4D500A38DC500A38C5C
:10247000F500A3A8E5009386950113861501A5052F
:1024800019BF0D458280411106C626C251CD22C416
:1024900004492A84C5C04AC003A94400630C090644
:1024A0001305F00FEF103001DC402320A900984302
:1024B00049C7FD572384F4002285EFF05FB2AA8458
:1024C00001C922440249B2402685924441018280DA
:1024D00022858D3FAA8475F5370400901304840388
:1024E0005C44E5F3B726002037D500209386469F4D
:1024F0001305C5F3014751468545EF10A02D48C48B
:1025000069F137D50020130505F5EF10E0282244C6
:10251000024955BF7145EF10007AC8C02A8949F1B8
:10252000A9442244024945B78D44B24026859244CD
:10253000410182808D44224479B73E85EF10E077D7
:1025400023A20400F1BF011106CE22CC4DC126CA40
:102550004EC683290501AA84638909084AC8370938
:102560000090130989030325C9002E8401C5834700
:102570000901A1E3954763EE8706B7E7002093873B
:10258000C78C0A043E941C4082874147D147A384EC
:10259000E900A388F9002685C5312A841545EF1086
:1025A000404ED2444249B2492285F240624405611C
:1025B0008280FD55EF10602A05E1230809005DBF08
:1025C000E147A38DF900C1BFD147A388F900E1B766
:1025D000C147A384F900C1B737D50020130585F79B
:1025E000EF10801B2308090071B7D244B2490D4493
:1025F00065BFD2444249B2490D447DB7011106CEB0
:1026000022CC630405104AC84EC6832905012A89D5
:10261000638B090E85472E846380F5068947639492
:10262000F50203C729019D47631DF70426CAB704B5
:10263000009093848403C84401C583C70401B5CBCB
:102640004147D54759A89387D5FF93F7D70F91EB0B
:1026500083C7A9001D476396E70203C729016312D8
:10266000F70226CAB704009093848403C84429C99A
:1026700083C70401B1E735A803C7A9009D476300DC
:10268000F70237D500201305C5F9EF10E010194403
:102690004249B2492285F24062440561828026CADD
:1026A000B704009093848403C84435C183C70401F0
:1026B000B9EFFD55EF10E01731ED85472388F400A1
:1026C000954763E18704B7E700209387478E0A04A4
:1026D0003E941C4082874547D547A384E900A388E0
:1026E000F9004A85513E2A841545EF10803922852C
:1026F000F2406244D2444249B24905618280414776
:10270000D147E1BFD2444249B2490D4461B7454780
:10271000D147E1B737D50020130585FEEF10C0077C
:1027200069BF630E0510B147630DF60063F5C7007E
:10273000B5476316F600B707009023A6C704014506
:102740008280011122CC06CE26CA2A84C5CA83D52E
:102750008600D8425C4C90423AC42316B100D8435C
:1027600032C285476301F70C4145EFF0EF82B704B1
:1027700000909384C40483C75400D5CB854522853B
:10278000EFF0CFB42DE55C4CD8438547630FF70AD3
:102790004145EFF06F8083C75400D1CB854522853A
:1027A000EFF0CFB229E55C4CD8438547630BF708BF
:1027B0004145EFE07FFE83C75400B5CB85452285B8
:1027C000EFF0CFB00DE55C4CD84385476303F708C5
:1027D0004145EFE07FFC83C75400B1CB8347410004
:1027E0000D456366F50085452285EFF02FAEB147B4
:1027F0009CC0F2406244D244056182809247370710
:1028000000FEB7160B00F98F938626C00347C10060
:10281000D58F136727003EC25C4C2306E100D843E6
:102820008547E313F7F42145EFE01FF789B7B14778
:102830009CC0F2406244D2444145056182800D450E
:1028400082802145EFE05FF5BDB72145EFE0DFF481
:1028500099B72145EFE05FF4BDBF011126CA06CE4E
:102860000451E1C822CC5C4D2A84D5CF854513059F
:1028700000024AC8EF30B0342A8961C94EC6130736
:102880008003B7E700202312E4029387C78F9840A4
:102890005CC408C801CB1545EFE01FF01545EF10EB
:1028A000401E0450B709009085479389C904A3824C
:1028B000F9009C4489C71545EFE01FEE0450DC4049
:1028C00081C71545EFE05FED5C4CDC4395C30547E0
:1028D0006386E7064145EFE03FEC83C759009DC79B
:1028E000014562444249B249F240D24405618280C6
:1028F0001545EFE07FEA5C4CD8438547E31CF7FCC5
:102900002145EFE07FE983C75900F9FB4A85EF30A5
:10291000702FF2402328040062444249B249D24455
:102920004145056182806244F240D2440D45056113
:102930008280F240D2440D45056182802145EFE05E
:10294000BFE583C75900C5FBD1B729456244424959
:1029500061BF63090510411122C426C206C604499D
:102960002A84BDC4DC40ADC79C43BDC35C4DD84385
:102970004AC085476304F70613050002EFE0DFE174
:10298000370900901309C904B7070090938787039C
:102990008346590003C70700B5C293060004630CC1
:1029A000D70A9306000C630AD70637D50020130513
:1029B000C500EF00705EDC4003D7470019C32392C7
:1029C0000700B240224402499244014541018280FD
:1029D0000D45B24022449244410182804145EFE0DE
:1029E000BFDB370900901309C904B707009093872C
:1029F00087038346590003C70700C5F21377F7071B
:102A0000930700046308F70037D500201305C500BD
:102A1000EF009058414502496DBFDC433547B3870D
:102A2000E702C207C183D8400355470063F5A700FA
:102A30002312F7003E8551D55C4CD843854763058A
:102A4000F7021205EFE05FD5034559001345150065
:102A500012050249BDBFDC431D47B387E702C20729
:102A6000C183D1B70D4582800E05EFE0FFD2E9BFEB
:102A7000397106DE4AD861C122DC26DA04492A848B
:102A8000CDC803A8440083270800C5C7B707009036
:102A90009387C70403C75700414971C74ED6034700
:102AA0008800AE891377070C9305000C631BB708E9
:102AB0009843B1476310F70C03C79400C547631DE3
:102AC000F70803C71401D5476318F70883C7A400A4
:102AD0001D476399E70A52D403CA24016313FA0A13
:102AE00003C7B400A147631EF70A83C73401D5EBBF
:102AF00083C7C4000947639EE70803C74401631AFC
:102B0000F708B707009056D2938A870383C70A0055
:102B100013070004638FE7081307000C6382E716AE
:102B200037D500201305051CEF001047225A925A92
:102B300039A86254D2540D49F2504A854259216154
:102B4000828037D5002013058504EF00F044194931
:102B50006254D254B259CDB737D500201305450C75
:102B6000EF009043EDB76254F250D2544A85425977
:102B70002161828037D5002013058508EF00D04100
:102B8000F9B7225A37D5002013050510EF00D040C1
:102B90007DBF37D5002013054518EF00F03F225ABE
:102BA0007DB737D5002013058514EF00F03E225A7B
:102BB00079BF9D47B387C7022312F800228536C626
:102BC000493B2A8969E1DC4003D747005AD03347A3
:102BD0004703B246137BF70F630D0B0A66CA832CBB
:102BE000040163800C0E370A0090130ACA025ECEFD
:102BF00062CC1374F70F832B0A00032C4A00931442
:102C0000440063F88B0B6AC883278A00338D7401F4
:102C100036C6B38577016377AC09330D7C416A868C
:102C20004E85EF40A05933868B4126963385A90106
:102C30008145EF40E04DB24683A74C0003C76700D3
:102C400023208A018947630BF70009C8CE853387A3
:102C5000990023A60500C105E39DE5FE424D83A72B
:102C60004A00818F23A2FA00239066016254D25455
:102C7000B259225A925A025BF24B624CD24C6DBD51
:102C8000354AD28705BF6254D254B259225A925A59
:102C900065B5239006006254D254B259225A925A12
:102CA000025B59BD26864E85EF4040516A8CB24684
:102CB00061B7268681454E8536C6EF406045B246EF
:102CC00079BF6254D254B259225A925A025BD24C02
:102CD0009DB5397106DE4AD845C122DC26DA0449A1
:102CE0002A84C9C8D84059C71C43C9C7B707009030
:102CF0009387C7044ED6AE8983C557004149D9C1D1
:102D00008345870093F50504C5C58C43B14763939C
:102D1000F50883C59400C5476395F50852D403CAE6
:102D2000A4009D47631DFA0883C5B400A1476390C2
:102D3000F50A83C5C40089476395F51856D2B70ACA
:102D40000090938A8A0383C70A009305000463886E
:102D5000B7089305000C638EB71637D5002013050E
:102D6000C535EF007023225A925A19496254D25441
:102D7000B25921A06254D2540D49F2504A854259A9
:102D8000216182806254F250D254B2594A8542592C
:102D90002161828037D500201305C523EF00D01FA5
:102DA000E9B737D5002013054527EF00F01E75BFA2
:102DB00037D5002013050520EF00101E7DB737D54D
:102DC00000201305C52AEF00301D225A79BF37D5E0
:102DD00000201305052FEF00301C225A79B79D47BC
:102DE000B387C7022312F700228536C6EFF07FB6FD
:102DF0002A8971E1DC4083D74700B246B3C7470355
:102E000013FAF70F63070A0A5AD0032B040163076A
:102E10000B14B70400909384C4025ECE13F4F70F32
:102E2000984083AB440013154400637F77119C44A2
:102E30003A95BA9763E2AB0A6309041229474E88B0
:102E40007F18E4C499074E870396070083A567009F
:102E50002310C700039627002907231CC7FE0396EB
:102E60004700232EB7FE231DC7FEC107E31E07FD43
:102E700083274B0003C7670088C08947630CF700AE
:102E80002947CE87FF17E4C4CE8523A30500A905F3
:102E9000E39DF5FE83A74A00818F23A2FA002390C9
:102EA00046016254D254B259225A925A025BF24BF2
:102EB000E9B5239006006254D254B259225A925A6C
:102EC0006DBD37D5002013058532EF00F00C225A76
:102ED00069BD354AD28729B73387EB401355470080
:102EE0001DC929474E887F18E5C499074E87039668
:102EF000070083A567002310C70003962700290752
:102F0000231CC7FE03964700232EB7FE231DC7FED2
:102F1000C107E31E07FDA9474E877F17F5C4330697
:102F2000A4403306F6023A85814536C6EF40401E7E
:102F300083274B0003C7670023A074018947B2466B
:102F4000E30AF7F415FCB9B729463306C4028145F4
:102F50004E8536C6EF40C01BB2462DBF6254D254D8
:102F6000B259225A925A025B01BD88C025B741115D
:102F700006C622C49307700263EAA700B7C70520FC
:102F80009387076B0A053E951C4182873764019041
:102F9000B7565F4537474E54930744469386E6F449
:102FA000130767552384070094C3D8C31305444609
:102FB000B2402244410182803764019037D700201B
:102FC000B7D6002037D60020130787399386C63935
:102FD0001306463A1305444693050002EF30707C11
:102FE000F1B73764019037D70020B7D6002037D625
:102FF00000201307073B9386C6391306463B13058B
:10300000444693050002EF30D0794DB73764019004
:1030100037D70020B7D6002037D600201307073B4C
:103020009386C6391306463C1305444693050002B1
:10303000EF303077A5BF3764019037D70020B7D67F
:10304000002037D600201307873D9386C639130624
:10305000C63D1305444693050002EF309074B9B79E
:103060003764019037D70020B7D6002037D600202C
:103070001307873D9386C6391306C63E130544469B
:1030800093050002EF30F07115B73764019037D720
:103090000020B7D6002037D600201307C73F9386FD
:1030A000C639130606401305444693050002EF3067
:1030B000506FEDBD3764019037D70020B7D60020A0
:1030C00037D60020130747479386C6391306C64EE6
:1030D0001305444693050002EF30B06CC1BD376460
:1030E000019037D70020B7D6002037D6002013072D
:1030F00007419386C6391306464113054446930596
:103100000002EF30106A5DB53764019037D70020B8
:10311000B7D6002037D60020130787429386C639DA
:103120001306C6421305444693050002EF3070674C
:10313000B5BD3764019037D70020B7D6002037D609
:103140000020130787429386C6391306864313056A
:10315000444693050002EF30D06489BD3764019086
:1031600037D70020B7D6002037D600201307874472
:103170009386C6391306C6441305444693050002D8
:10318000EF30306225B53764019037D70020B7D6CD
:10319000002037D600201307474C9386C639130604
:1031A000C64C1305444693050002EF30905FFDBB0B
:1031B0003764019037D70020B7D6002037D60020DB
:1031C000130787449386C6391306064613054446FB
:1031D00093050002EF30F05CD1BB3764019037D724
:1031E0000020B7D6002037D6002013074747938624
:1031F000C6391306C6481305444693050002EF304E
:10320000505A6DB33764019037D70020B7D60020ED
:1032100037D60020130747479386C6391306064A58
:103220001305444693050002EF30B05741B33764AD
:10323000019037D70020B7D6002037D600201307DB
:1032400047479386C63913068647130544469305B8
:103250000002EF30105599BB3764019037D700203A
:10326000B7D6002037D60020130747479386C639C4
:103270001306464B1305444693050002EF30705287
:1032800035B33764019037D70020B7D6002037D642
:103290000020130747479386C6391306064E1305C9
:1032A000444693050002EF30D04F09B3411126C2C6
:1032B000AA84614522C406C62E84EF00D01F19C51A
:1032C00044C500C923200500232A0500B24022443A
:1032D00092444101828079714AD04ECE56CA06D6B8
:1032E00022D426D252CC62C4B28A2A89AE8939E26B
:1032F000EF006071CA85EF0000642A8C4DC9FD554E
:103300000845EF00D020AA8471E903244C01130A78
:103310004C01631C440303258C00EF00901DB25048
:103320002254268502599254F249624AD24A224CCA
:1033300045618280EF00206DCA8501252A8C25C950
:103340004049130A4501630944095AC85EC666C26A
:103350006AC0814437CD0520B7DC0020FD5B21A881
:10336000984B19CF238057030297AA84630A7503E9
:103370000040630744031C444E86CA853E85EDF336
:1033800083A701814A85E355F0FEEFF05FBE2A86F0
:1033900093050D7513850C5301210040E31D44FD79
:1033A000424BB24B924C024DE39B0AF6ADB783A75A
:1033B00001816344F000FD549DB74A85EFF03FBBA7
:1033C0002A86B7C5052037D50020938505751305D6
:1033D000854FD926FD54A1B7814491B783A70181B8
:1033E000E35BF0FCB7C5052037D500209385057554
:1033F000130545515526FD541DB75C49484D82873C
:10340000DDAC0146C9BD0546F9B5011122CC26CA7D
:103410002A84AE840845FD5506CE52C4EF00300F15
:1034200051E54EC64AC8930944015C486396F900C9
:1034300025A09C436382F9029847E39CE4FE08447C
:10344000EF00300B4249B2497D5AF2406244528546
:10345000D244224A056182800844EF009009314538
:10346000EF0070052A8951C504C5FD550844EF00D9
:10347000100A2A8A39E95848232227011C4885075F
:10348000232239012320E9001CC8232A24010844EF
:10349000EF003006DC448507DCC4F2406244424958
:1034A000B2495285D244224A0561828083A70181B4
:1034B000E35CF0F8B7C5052037D500209385457942
:1034C00013054551D12C7D5A49B783A70181635B10
:1034D000F000B7C5052037D500209385C5771305C3
:1034E00045515D2C4A85EF00407D7D5A4249B249E5
:1034F000A9BF83A701816346F0004249B2497D5AC2
:10350000A9B7B7C5052037D500209385C577130522
:10351000455559247D5A4249B24905BF411122C43B
:1035200026C206C6AA842E84E5212DC131C84AC010
:10353000D929A6850D212A8939C122856D28AA8419
:103540001DCD484819E9DC508DC32244B240A68500
:103550004A859244024941014DBD2244B2404A8607
:10356000A685024992444101F5A003A5C180D14539
:10357000352DC8D079F983A70181634EF000024947
:10358000B240224492447D55410182807921FD5709
:10359000E31EF5F8F5B7B7C5052037D500209385AC
:1035A000857613054557CD2A0249D9BF03A5C180A9
:1035B000828023A6A18001458280411113058002EB
:1035C00006C6EF00406F0DC5B7E6009003A7C6F52D
:1035D000B7370020130617009387074023AEC6F4C1
:1035E00018C51CC908C148C12326050023220502AD
:1035F000B24041018280411122C406C62A8408419A
:1036000009C5B24022444101828013058002EF00C7
:10361000806A1DCDB7E600903737002083A7C6F536
:10362000130707401306500A18C91CC540CD10CD1A
:1036300008C148C12326050008C018488507B240C4
:10364000224423AEF6F458C92322050241018280A8
:10365000084045BF411122C426C22E84AA844C468C
:1036600031054AC006C63289FD2459C1B73700204A
:103670009387A73F1CC8A285EFF03FD9FD57630988
:10368000F506804001CC5C508DCBA2852244B2402F
:1036900092444A85024941016FF03FD7393F2A845D
:1036A00031C59307A0051CCD44CDB7D7052088C0F0
:1036B0009387A7C65CC923220502CD3DD145FD21D4
:1036C00048D061F583A70181635BF000B7C5052091
:1036D00037D500209385C57A130545577528B24024
:1036E0002244924402497D5541018280804061BF5D
:1036F0002285E123EDB741118347050206C64851F3
:10370000814689EB5D23B2403335A0003305A040EC
:1037100041018280712BB2403335A0003305A040B7
:1037200041018280011106CE02C61DC122CC00419A
:1037300019CC48501DCD7D566C00C529AA8532464E
:103740002285EFF09FCB6244F240056182806244A3
:1037500083A701816344F0007D55FDB7B7C50520FF
:1037600037D500209385857C1305455935207D5537
:10377000E1BF83A701816345F00062447D55E9B74D
:10378000B7C5052037D500209385857C130545579F
:1037900021207D5562444DBF397126CA44102ED276
:1037A000A68506CE22CC26C632D436D63AD83EDA04
:1037B00042DC46DEEF3070062A8437D50020A6852D
:1037C00013054539EF307005418DF2406244D24413
:1037D0002161828001112E8806CEAA85BA8736859E
:1037E000630E08000547C286631AE8022A8768004C
:1037F000E12311E93245F240056182802A87814642
:1038000068005D2B65D983A701816357F00037D528
:1038100000201305C55C49370145F1BF83A701812D
:10382000E35CF0FE37D500201305455BB537014555
:10383000D9B7411106C6D52B01E5B24041018280BE
:1038400083A701816344F0007D55C5BF37D50020B3
:103850001305055E91377D55CDB7411106C6292563
:1038600001E5B2404101828083A701816344F000F9
:103870007D55C5BF37D500201305455F313F7D55C8
:10388000CDB7BD4763EAA700B7C705200A059387F0
:10389000C77DAA97884382807D558280011126CA00
:1038A0004AC84EC606CE22CCB289AA842E8921C22D
:1038B00000416316A4001DA00040630F94005C4407
:1038C000E39C27FF638009042285F2406244D244CE
:1038D0004249B2490561828063820902014422851E
:1038E000F2406244D2444249B24905618280FD55AA
:1038F0000845312915E18040E31394FC8844D52E16
:103900000144F1BF8844F5262285F2406244D24446
:103910004249B2490561828083A70181E350F0FCEE
:10392000B7D5052037D5002093850583130545516C
:10393000A53501446DB7014695B72A87084163163E
:10394000A70001A808416306A7005C45E39CF5FEBB
:103950008280014582800111014622CC26CA4EC6D2
:1039600006CEAA84AE891D3F2A8401C92285F24071
:103970006244D244B2490561828071454AC8252E0D
:103980002A8921C9930745015CC91CCD08C148C1DA
:103990002328050023263501210515268844FD55D9
:1039A000BD2621E1984023222701DC4485072322FC
:1039B00099002320E90023A02401DCC48844152EAB
:1039C0004A842285F24062444249D244B2490561A8
:1039D00082802285F24062444249D244B249056164
:1039E000828083A70181635CF000B7D5052037D5BD
:1039F00000209385C58113054551EFF0FFD94A8515
:103A00006D2C4249A5B7B7E7009003A507F6828061
:103A1000B7E7009003A507F68280411122C437E47E
:103A2000009006C6832704F68DE3414569242320D0
:103A3000A4F601CD08C148C1232605002105412473
:103A40000145B2402244410182807D55DDBF011114
:103A5000BA87420636874182BE867C0006CEEF00DA
:103A6000300C85476316F500F240324505618280CF
:103A7000F2400145056182806F00501282806F0024
:103A80007026B7E7009083C747F691E38280411123
:103A900006C65524B24041016F0030676FD0AFE5D4
:103AA0006FD06FE9797106D602C459C9B7E70090A3
:103AB00022D42A8403A587F626D24AD04ECE328954
:103AC000AE89B684EF8070752AC445C923203501BC
:103AD0002322250181468DE429462C002285EF1002
:103AE000D005AA87054701456385E70483A70181BF
:103AF0006348F006225492540259F249054535A80C
:103B000070002C002285EF10902A3247AA8779DBBB
:103B1000732740F159E3B716031803A7C6FF1367CD
:103B2000170023AEE6FE0F00F00F05470145E39FA7
:103B3000E7FA225492540259F249B2504561828008
:103B400083A70181E35CF0FAB7D5052037D50020C3
:103B50009385858413054560EFF01FC40545F1BFCB
:103B600037D50020A2851305C563EFF0FFC20545D8
:103B7000225492540259F249C9B783A70181E35BE9
:103B8000F0F637D500201305C561EFF0FFC00545FD
:103B9000225492540259F2494DB7B71603180A0736
:103BA0003697854614C30F00F00F41B7411106C682
:103BB0006352A00626C2B7E4009022C483A784F60D
:103BC0002A84B1C3D0477916631BC50022852244DD
:103BD0009244B2400146914541016F10E06983A7CC
:103BE00001816348F00022449244B2400145410102
:103BF000828037D50020A28513054568EFF0DFB934
:103C000022449244DDB70905EF80305123A4A4F685
:103C100055FDD1BF83A70181E359F0FC37D50020C2
:103C200013050565EFF05FB7C9B7797122D426D2C5
:103C30004AD04ECE52CC06D6AA842E8A328493091C
:103C4000C1007D592285228663042401ED202A8645
:103C5000CE852685EF10702915C9B2458041DC411B
:103C600023A0050089C72320FA0023A20500B7E797
:103C7000009003A587F6EF80D0562285B2502254DB
:103C800092540259F249624A45618280B7D50520B3
:103C900037D5002083A70181938505861305C56C60
:103CA000E352F0FAEFF05FAF71BF81466FF09FDF34
:103CB00085466FF03FDF6F20004D6F20C0664111D9
:103CC00026C2AA84114506C6FD3715C122C42A841E
:103CD0000545EF10900808C001C980C00145224485
:103CE000B2409244410182802285C13F2244054571
:103CF000C5BF4111084181460146814506C6EF1006
:103D0000C063B2407D153335A0004101828041116E
:103D100022C406C6FD572A846385F5002E85212816
:103D2000AA850840EF105039B24022447D15333542
:103D3000A00041018280B7D6CCCC9386D6CCB337D5
:103D4000D502898315462A877F97C7C6B7D7CCCCBB
:103D50003307E5409387C7CC3336E500B307F70256
:103D6000FF17D6C63336D702B2973307D70205837B
:103D70001396F701598EA94585833337B602AA8673
:103D8000FF16B6C67F97B7C43335D500B307E040FA
:103D9000898FDD8EB336D0003305D6008280411185
:103DA00006C6EF20E034584109C7B2400C45410136
:103DB0000287B2404101828001114EC6AA89314575
:103DC00026CA4AC852C456C25AC006CE2E8B328961
:103DD000B684BA8A3E8AEFF01FEE31C522CC2A841F
:103DE0004A85913F37470020AA85A28626865A85B4
:103DF0001307E7D9EF10906A08C015C123225401B8
:103E00002324440123A0890001456244F240D244A6
:103E10004249B249224A924A024B05618280228578
:103E2000EFF0BFE962440545D5B7411122C426C26F
:103E300006C6FD572E84AA846386F5002E85EFF012
:103E40009FEF2A848440EF00E0742A86228726852B
:103E500081468545EF10706CB24022447D15924436
:103E60003335A00041018280411122C406C6FD57AE
:103E70002E872A846386F5002E85EFF0DFEB2A87F4
:103E80000840814601468D45EF103069B24022441A
:103E90007D153335A0004101828001456F0080719E
:103EA000011122CC4AC806CE26CA4EC62A84EFD0BB
:103EB0008FA437E700908327C7F98507232EF7F8EB
:103EC00037E900908327C9FAD1CFB7E9009083A7DB
:103ED00009F95854A5CFB76401909384844EB7E68E
:103EE000009083A706F8850737E6009023A0F6F830
:103EF0007CC0832746F963F4E700232AE6F8D1471C
:103F000026857F15F7C493054400EF10D043EFD00A
:103F10008FA283A709F985C78327C9FAD8575C54AC
:103F2000637FF700F32740F1A9EF371703188327C2
:103F3000C7FF93E71700232EF7FE0F00F00FF240A4
:103F40006244D2444249B249056182808327C9FA5A
:103F5000B7640190DC579384844EE362F7F823261C
:103F600089FAB5BF232689FA0327C7F98547630372
:103F7000F702B76401909384844E5854B7E90090D7
:103F8000B9BF371703188A07BA97054798C30F00B8
:103F9000F00F75B7B76901909384894E52C4938925
:103FA000894E138A040A4E85D109EF103038E31C7C
:103FB0003AFF376A019013054A4DEF103037B76961
:103FC00001901385094CEF10703637650190130589
:103FD000C54AEF10B0353765019013058549EF10DC
:103FE000F0343765019013054548EF103034130A5B
:103FF0004A4DB7E7009023A447FB9389094CB7E7E4
:10400000009023A237FB5854B7E90090224AC1BD63
:10401000011126CAB7E70090B7E400904EC683A905
:1040200087F983A7C4FA22CC2A84138547004AC89B
:1040300006CE2E89EF107035FD576300F4044E94C0
:1040400083A7C4FAC0C363633405B7E7009003A530
:1040500087FA83A5C4FA9105EF105030B7E70090B6
:1040600003A7C7F76374E40023AE87F6F240624407
:10407000D2444249B24905618280631C0904138716
:10408000F9FF83A7C4FAD8C363810902B7E7009098
:1040900003A547FA624483A5C4FAF240D2444249D8
:1040A000B249910505616F10702BB7E7009003A529
:1040B00087FA83A5C4FA9105EF10502AF2406244B2
:1040C000B7E70090D2444249B24983A7C7F70561D8
:1040D000828083A5C4FA624437650190F240D244DD
:1040E0004249B24991051305454805616F10B02555
:1040F00001114EC69319260022CC52C44E862A8A3C
:104100002E84032508039305500A26CA4AC856C2BE
:104110005AC0C2843E8B06CEB68A3A89EF20507FC1
:10412000F1199C58BE9993F989FF51CCA285930748
:1041300004011388440383C8050023001801850582
:10414000638508000508E398F5FEA38104049D47F4
:1041500063F327013E891385440023A6240323A685
:10416000240523A80404EF10B01D13858401EF106B
:10417000301DA147B387274184C8C4D023A40406B7
:1041800023AA04049CCC23AC040423AE040423A07F
:10419000040623A2040623A60406238804065686E2
:1041A000D2854E85EFC0DFF088C063040B0023206A
:1041B0009B00F2406244D2444249B249224A924AA8
:1041C000024B05618280238A040251B701114EC659
:1041D00052C4B7690190376A019026CA4AC856C2CC
:1041E0005AC006CE22CC93898949130A8A4EB7E475
:1041F000009037E90090854A094B83A704FAADC3C4
:10420000EFC07FEF83A7C900C04713054400EF103C
:10421000D0178327C9F9FD17232EF9F883A704FACD
:10422000FD1723A0F4FAEFC01FF18347140785C3DD
:10423000638D5705E38367FDB707009003C74722E7
:10424000B7070218A385E7000F00F00F01A0085878
:10425000EF20600D2285EF20000D83A704FACDF337
:1042600083270A000547637FF700F32740F195E3B2
:10427000371703188327C7FF93E71700232EF7FE8E
:104280000F00F00FEFD08FBD8DBF2285EF20A0096A
:10429000ADB7B71603188A07B69798C30F00F00F8B
:1042A000D5B7B9C3011122CC06CE428463030802FC
:1042B0009308400746C6324363031305B7070090CF
:1042C00003C74722B7070218A385E7000F00F00FC6
:1042D00001A0B707009003C74722B7070218A385BC
:1042E000E7000F00F00F01A0B707009003C74722B7
:1042F000B7070218A385E7000F00F00F01A0894857
:10430000A30818072328F802B2483C00EFF05FDE4C
:104310002285EFF0FFB8F2406244224505618280B9
:1043200079714ECEAA891315260026D252CC56CAD0
:104330005AC85EC606D6B2842E8AB68A3A8BBE8B1F
:10434000EF10706431C922D42A84130540074AD083
:10435000EF1070632A8905CD00D92A88A3080506C5
:10436000DE875A87D6862686D2854E85EFF05FD8BF
:104370004A85EFF0FFB2054522540259B2509254DB
:10438000F249624AD24A424BB24B45618280228551
:10439000EF107079225402597D55CDB7411122C4D6
:1043A0002A844AC006C626C237E90090EFC0BFD4AF
:1043B00079C0930444002685EF10207D1C5489C7E2
:1043C00013058401EF10607C37E70090832707F81E
:1043D00085072320F7F88327C9FA638F870637E715
:1043E00000908327C7F9FD17232EF7F8834714079A
:1043F00095C30547638DE70A09476383E702B7075B
:10440000009003C74722B7070218A385E7000F00F3
:10441000F00F01A00858EF1010712285EF10B07056
:10442000B7E7009003A787FA184329EBB7E7009096
:104430007D5723AEE7F6EFC01FD0B7E7009083A704
:1044400007F989C78327C9FA63838704B2402244E6
:1044500092440249410182803765019013058549E4
:10446000A685EF10406E37E70090832707FA85078F
:104470002320F7FAC9B70324C9FA25BF83A787FA0F
:10448000DC479843B7E7009023AEE7F66DB7B7E790
:10449000009083A747F785C3B707009003C747225B
:1044A000B7070218A385E7000F00F00F01A02285CF
:1044B000EF107067B5B7F32740F181EF3717031896
:1044C0008327C7FF93E71700232EF7FE0F00F00F97
:1044D000B5BF371703188A07BA97054798C30F0067
:1044E000F00FADB7011170002C00480006CE02C2DB
:1044F00002C4EFD0CF97B7D5002037450020A247A0
:10450000124832469385856E1305C51C01478146C6
:10451000EFF03FD9B7E7009023ACA7F629CDEF1015
:10452000807185476300F502FD576316F504B707F0
:10453000009003C74722B7070218A385E7000F00C2
:10454000F00F01A0B707009003C74722B707021872
:10455000A385E7000F00F00FB7E700907D5723AE6B
:10456000E7F6B7E7009023A8A7F8B7E7009023ACD9
:1045700007F8EFC07FF6F240B7D7002083A707AE59
:104580000561828037E70090832747F78507232A54
:10459000F7F68280411106C622C4EFC0DFB5B7E747
:1045A000009003A487F9EFC01FB92285B2402244CE
:1045B0004101828001C5130545038280B7E7009061
:1045C00003A5C7FA6DF9B707009003C74722B707DD
:1045D0000218A385E7000F00F00F01A07971B7E77B
:1045E000009006D656CA83A747F7CDEFB7E70090ED
:1045F0004AD003A987F9050966C223AC27F96300ED
:10460000090C4ECE5EC6B7EC009083A7CCF7636969
:10461000F90C52CC37EA009083278AFA9C436382D4
:104620000716B76901905AC862C422D426D293896A
:10463000894E814AB7EB009037EB0090514C89A02E
:10464000EF10A0541C541305840199C3EF10E053DC
:104650005C544E8503274BF97F9587C5A685637407
:10466000F700232AFBF8EF10004E83A7CBFADC57A4
:1046700058546363F700854A83278AFA9C43E5C34D
:1046800083278AFADC47C047930444005C402685B0
:10469000E378F9FA23AEFCF622549254624A424B74
:1046A000224CB1A037E700908327C7F88507814ADD
:1046B000B2502326F7F85685D24A45618280B7E783
:1046C000009003A787FA184331CFB707009003C7BC
:1046D0004722B7070218A385E7000F00F00F01A0DB
:1046E000B76901909389894E814AB7EB009083A7FF
:1046F000CBFAD857D147FF19F7C4854703A709005C
:1047000063F3E700BE8AB7E7009083A787F891C3F9
:10471000854AB2500259F249B24B924C5685D24A60
:104720004561828037E7009083A687FA032647FA1F
:1047300023A4C7FA2322D7FAB7E6009003A746F8C6
:10474000050723A2E6F803A787FA4ECE5EC61843F4
:1047500005E3B7EC0090FD5723AEFCF67DB522547F
:104760009254424B224CFD5723AEFCF6624A41B7AD
:1047700083A787FADC479C43B7EC009023AEFCF696
:1047800069B5B76901909389894E814AB7EB00906A
:10479000D9BF797106D622D4EFC0FF95B7E7009054
:1047A00003A747F77D1723AAE7F683A747F7639682
:1047B0000710B7E7009083A7C7F9638007104AD0B6
:1047C000376901901309C94A5EC626D283270900BA
:1047D000B7EB0090D1C752CC376A01904ECE56CA83
:1047E0005AC862C4130A8A4EB7E9009037EB0090AA
:1047F000B7EB0090D14A054C8327C900C047130589
:104800008401EF108038930444002685EF10E037D0
:104810005C54528503A749F97F9557C5A6856374F3
:10482000F70023AAF9F8EF1000328327CBFADC5700
:1048300058546364F70023A48BF983270900CDFF44
:10484000B7E7009003A787FA184341E3B7E7009062
:104850007D5723AEE7F6F249624AD24A424B224CD8
:1048600037E900900324C9F819C88544EFF01FD731
:104870007D1419C123A49BF875F8232609F883A792
:104880008BF88DCBF32740F1A1EB37170318832763
:10489000C7FF93E71700232EF7FE0F00F00F054424
:1048A00092540259B24BEFC01F892285B250225454
:1048B0004561828092540259B24BEFC0DF870144B8
:1048C0002285B25022544561828083A787FADC4753
:1048D0009843B7E70090B5BF371703188A07BA9710
:1048E000054798C35DBFB7E7009083A747F781EFFF
:1048F000B707009003C74722B7070218A385E70050
:104900000F00F00F01A06FF0DFE809EDF32740F191
:104910008DCF371703188A07BA97054798C30F003A
:10492000F00F8280411122C437E4009006C683272D
:1049300044F79DC7B707009003C74722B70702187F
:10494000A385E7000F00F00F01A037170318832796
:10495000C7FF93E71700232EF7FE0F00F00F8280AA
:10496000832744F78507232AF4F68145EFF04FEAC1
:10497000832744F781EFB707009003C74722B707A3
:104980000218A385E7000F00F00F01A0EFF07FE011
:1049900011EDF32740F199EF371703188327C7FF6D
:1049A00093E71700232EF7FE0F00F00FB2402244CA
:1049B00041018280371703188A07BA97054798C3C1
:1049C0000F00F00FE5B7B7E7009083A747F799C747
:1049D000B7E70090054723A4E7F88280B7E7009087
:1049E00023A407F8B7E7009003A787F9B7E700907B
:1049F000411123A6E7F637E7009022C406C683A636
:104A0000C7F6032607F737E40090637AD60003A5BC
:104A1000C7F68325C4FAB455918EAA96B4D503A6D9
:104A2000C7F68326C4FA8327C4FA2328C7F69C5BFB
:104A3000984263F7E706B7660190B7E50090938662
:104A4000864E83A745F9514636877F97C7C41843DA
:104A500001EB85CFFD1736877F97C7C4184375DBF9
:104A600051473387E7023385E60050415042210722
:104A700050C1BA96630FD60258462326E4FAB240D4
:104A8000224423AAF5F841018280B707009003C7AA
:104A90004722B7070218A385E7000F00F00F01A017
:104AA0000325C4FA8325C4FA93854503EFC07FBB71
:104AB00059B7504250C1C9B71DC14111B7E7009065
:104AC00022C42E8483A5C7FAE10506C6EF100009AB
:104AD00022852244B240854541016FF06FD3B7076C
:104AE000009003C74722B7070218A385E7000F000D
:104AF000F00F01A005C94111B7E7009026C2AE84AE
:104B000083A5C7FA22C4E105328406C6EF10A003CC
:104B100011C0FD54A2852244B24026859244410131
:104B20006FF00FCFB707009003C74722B7070218EF
:104B3000A385E7000F00F00F01A041115C4522C4DE
:104B400006C626C2C04735CC930484012685EF10E3
:104B5000C003B7E7009083A747F79DCB3765019067
:104B60001305C54AA685EF00107EB7E7009083A71E
:104B7000C7FADC575854014563F7E700B7E70090E0
:104B8000054523A4A7F8B240224492444101828003
:104B9000930444002685EF00507F37E700905C5473
:104BA000832647F963F4F600232AF7F83765019066
:104BB00051471305854E7F95E7C4A685EF00B07871
:104BC0006DB7B707009003C74722B7070218A38540
:104BD000E7000F00F00F01A037E70090B7E7009063
:104BE000032747F883A787F918C15CC182803DC1BC
:104BF000411126C206C622C4AE84B1C12A84EFC0C8
:104C00008FCF37E700909C40832687F97D56638BD2
:104C1000C706B7E5009003A545F8032804005040F7
:104C20006305A80463E3C60423A004000544EFC0A1
:104C30008FD02285B2402244924441018280B7073E
:104C4000009003C74722B7070218A385E7000F00AB
:104C5000F00F01A0B707009003C74722B70702185B
:104C6000A385E7000F00F00F01A03385C640E37D68
:104C7000F5FA958FB2979CC083A645F8832787F9EC
:104C800014C05CC0014465B7B7E70090054723A492
:104C9000E7F88280B7E7009083A707F9054581CB45
:104CA000B7E7009003A547F7133515000605828086
:104CB0002DC5011126CAB7E4009083A7C4FA22CCFF
:104CC000D85706CE5C552A8463FEE7024AC8184DC1
:104CD0006348070003A7C4FA54572147158F18CD1E
:104CE000376901901309894ED1464A877F97D7C407
:104CF0005C486386E70283A7C4FADC575CD40545A9
:104D0000424939A083A7C4FADC5768453335F5001A
:104D1000F2406244D24405618280014582804EC6E1
:104D2000930944004E85EF00506683A7C4FADC5710
:104D300037E700905CD4832647F963F4F600232A12
:104D4000F7F851474A857F95E7C4CE85EF00B05FFD
:104D5000B24975B731CD4111B7E7009022C406C6FC
:104D600003A4C7FA630DA400B707009003C7472246
:104D7000B7070218A385E7000F00F00F01A03C4819
:104D800089CFFD173CC8545478446383E6009DC323
:104D90000145B240224441018280B707009003C719
:104DA0004722B7070218A385E7000F00F00F01A004
:104DB0000145828026C2930444002685EF00F05C02
:104DC0007C4421471D8FB7E6009018CC5CD403A724
:104DD00046F96374F70023AAF6F837650190514746
:104DE0001305854E7F95E7C4A685EF00D055054590
:104DF000924445B725CD411122C406C63C492A84B8
:104E000081EFB707009003C74722B7070218A385B1
:104E1000E7000F00F00F01A07845636CB700545411
:104E20006385E60005466388C700B240224441011D
:104E300082802E87EDB7B7E7009083A7C7FA638318
:104E4000870626C258D41C4C63C50700A147998F1A
:104E50001CCCB76401909384844E5147A687FF977A
:104E6000E6C458486305F7009244C1B782804AC03F
:104E7000130944004A85EF00505137E700905C5415
:104E8000832647F963F4F600232AF7F8268551476D
:104E900022447F95E7C49244B240CA850249410149
:104EA0006F00704AB707009003C74722B707021880
:104EB000A385E7000F00F00F01A0B7E7009003A75C
:104EC000C7FA11C783A6C7FAB84A0507B8CA03A527
:104ED000C7FA8280411122C426C206C6045D3C4145
:104EE0002A8499EB1C4185040145A5CF04DCB2401E
:104EF00022449244410182804AC032893E8663172F
:104F000009024841EF20802B5C403840BA975CC0D2
:104F10001844850463E4E7001C405CC00249B240C9
:104F200004DC224492440145410182804845EF203F
:104F3000E02838405C44998F5CC414403307E0405B
:104F400063F5D7001C44BA975CC489476301F90232
:104F500085040249B24004DC2244924401454101E7
:104F600082800844EFF01FDF2324040041B7DDF402
:104F700085446DB7011122CC06CE20452AC61DC836
:104F8000185C5C5C637DF70026CA185C8144636E24
:104F9000F702F24062442685D24405618280B70759
:104FA000009003C74722B7070218A385E7000F0048
:104FB000F00F01A0B707009003C74722B7070218F8
:104FC000A385E7000F00F00F01A04AC8034954046D
:104FD00001466C002285EFF0FFEF62091359894109
:104FE000FD57AA84630EF9009307F0076306F902E0
:104FF00093071900E207E187A302F404424951BF75
:105000005C5099E3424971B713054402EFF0FFB2D7
:1050100075D985444249B5BFB707009003C74722F9
:10502000B7070218A385E7000F00F00F01A0411198
:1050300022C426C206C6AA844AC0EFC0CF8B83C74B
:1050400054041394870161846353800413894402D8
:1050500021A8EFF03FF215E19307F4FF13948701C5
:1050600013F7F70F618405C7BC442685FDF3DC50B8
:105070004A8591CFEFF07FAC65D1EFF0FFC0930789
:10508000F4FF1394870113F7F70F618471FFFD5745
:10509000A382F404EFC02F8AEFC0EF8583C74404D6
:1050A000139487016184635D80021389040109A858
:1050B0009307F4FF1394870113F7F70F61840DC36F
:1050C0009C484A8591CFEFF05FA77DD1EFF0DFBB21
:1050D0009307F4FF1394870113F7F70F61846DF3BF
:1050E000FD572382F4042244B24092440249410114
:1050F0006FC06F8439C5411122C426C22A8406C6F6
:10510000AE84EFB05FFF38405C5CB307F702144039
:105110003387E740232C04027D563697B697230247
:10512000C40458C41CC454C0A302C40495E41C485D
:10513000A1E7EFC04F80B2402244924405454101AF
:105140008280B707009003C74722B7070218A385DC
:10515000E7000F00F00F01A013050401EF00101D80
:1051600013054402EF00901CEFB0FFFCB240224454
:10517000924405454101828013050401EFF0FF9B35
:105180004DD9F32740F181EF371703188327C7FF65
:1051900093E71700232EF7FE0F00F00F59BF3717C4
:1051A00003188A07BA97054798C30F00F00F51B745
:1051B00001EDB707009003C74722B7070218A38580
:1051C000E7000F00F00F01A095C6797106D641C225
:1051D0008DCD930740053ECE72486303F804B707B0
:1051E000009003C74722B7070218A385E7000F0006
:1051F000F00F01A0B707009003C74722B7070218B6
:10520000A385E7000F00F00F01A0B707009003C7C8
:105210004722B7070218A385E7000F00F00F01A08F
:10522000F2478547C8DEACC22383F60490C23685B8
:10523000BE853AC636C4EFF0FFEBA246324723885C
:10524000E604B25023A4060436854561828091E9C4
:10525000930740053ECE7246E313F6F8F2473686D2
:10526000C9B7B707009003C74722B7070218A3853D
:10527000E7000F00F00F01A001EDB707009003C792
:105280004722B7070218A385E7000F00F00F01A01F
:10529000011122CC4EC806CE4ACA2A84B289A1E1A5
:1052A000130540052EC6EF00106E2DC9230305041B
:1052B0002A89B2452320A9002320B904232E89027C
:1052C00085454A85EFF01FE32308390523240904A7
:1052D000F24062444A85C249524905618280B3372F
:1052E000B5023305B50285E39307B0FA63FAA70266
:1052F000B707009003C74722B7070218A385E70046
:105300000F00F00F01A0B707009003C74722B707AF
:105310000218A385E7000F00F00F01A001494DBF5F
:10532000130545052EC6EF0010662A89B2457DD5C6
:105330002303050413054505B5BF397106DE32C6E2
:105340006308051222DC4AD84ED62A84AE893689F3
:10535000638E050E89476311F902585C8547630D1A
:10536000F700B707009003C74722B7070218A385C5
:10537000E7000F00F00F01A0EFF0DF91630E0510C2
:1053800026DAEFB05FD7185C5C5C6368F712894778
:10539000630EF91452D456D25AD08147130A8101B0
:1053A000FD54930AC100130B040139A8EFB0BFD814
:1053B0002285EFF0DFC7EFF00FD3EFB0DFD3145C3F
:1053C000585C854763E8E60E3247630C0714C9CF83
:1053D000EFB07FD6EFF00F9BEFB0FFD183474404CF
:1053E000E207E1876394970023020404834754048F
:1053F000E207E18763949700A3020404EFB0BFD3F0
:10540000D6855285EFF0AFFE63140512EFB0BFCE24
:10541000185C5C5CE31CF7F8EFB0FFD1B2455A852D
:10542000EFF08FE92285EFF09FC0EFF0CFCB51F581
:10543000F32740F1A9EB371703188327C7FF93E73A
:105440001700232EF7FE0F00F00F85BF3C41E383CA
:1054500007F0B707009003C74722B7070218A385D4
:10546000E7000F00F00F01A05285EFF0EFF68DB7C7
:10547000B707009003C74722B7070218A385E700C4
:105480000F00F00F01A0371703188A07BA970547D6
:1054900098C30F00F00F15B7B247E38307EEB707C5
:1054A000009003C74722B7070218A385E7000F0043
:1054B000F00F01A0225A925A025B4A86CE852285BD
:1054C000045CEFF03FA13C4495CB89476309F904A4
:1054D0002285EFF03FAA15E5EFB0FFC50545625400
:1054E000F250D2544259B259216182804A86CE8507
:1054F0002285045CEFF01F9E3C4495E35C50A1EBD9
:1055000061DDF32740F19DEB371703188327C7FFB1
:1055100093E71700232EF7FE0F00F00F75BFCDFCA9
:1055200045BFEFB05FC10145225A925A025B45BFA9
:105530002285EFF0DFAFEFF00FBBF5B73717031899
:105540008A07BA97054798C30F00F00F71B7130584
:105550004402EFF08FDE49D16DB7411126C2AA8413
:105560001305400522C406C6EF00F0412A8415C980
:1055700085454CDD2303050408C023200504EFF016
:105580007FB72285230894042324040423240400E1
:105590002320040023260400814601468145EFF0C4
:1055A000DFD92285B24022449244410182806DC1FC
:1055B000011122CC26CA4AC85AC006CE2A842E8B94
:1055C0003289B684A5CD89476391F402585C85473A
:1055D000630DF700B707009003C74722B70702180B
:1055E000A385E7000F00F00F01A052C456C2EFB030
:1055F0007FFEB7070218370A009083C6B70003473B
:105600004A2293FAF60FA385E7000F00F00F185C0B
:105610005C5C6362F70489470145638EF402B70757
:105620000218A38557010F00F00FF2406244224A8E
:10563000924AD2444249024B056182803C41C1D723
:10564000B707009003C74722B7070218A385E700F2
:105650000F00F00F01A04EC683495404DA85268658
:105660002285E209032B8403EFF0DF8693D9894179
:10567000FD57638AF9029307F0076387F90493875C
:105680001900E207E187A302F4040545B24941BFCE
:10569000B707009003C74722B7070218A385E700A2
:1056A0000F00F00F01A03C448DCB89476394F400B8
:1056B000E31D0BFC2285EFF0FF8B61D9E30709FCAA
:1056C00085472320F900D1B703474A22B7070218BC
:1056D000A385E7000F00F00F01A05C50DDD7130594
:1056E0004402EFF08FC579F94DB7397106DE32C645
:1056F000630B051222DC52D42A842E8AC5C5EFF032
:105700006FD955CD4AD8EFB01F9F03298403631387
:10571000091426DA4ED656D2B247ADCB9309810191
:105720004E85EFF06FCB930AC100FD54EFB0BFA0E0
:10573000EFE05FE5EFB03F9C83474404E207E18779
:10574000639497002302040483475404E207E1872B
:1057500063949700A3020404EFB0FF9DD6854E85A5
:10576000EFF0EFC835E9EFB01F991C5CD1C3EFB083
:105770009F9C2285EFF0BF8BEFF0EF96EFB0BF97C5
:10578000032984036315090CB247CDF3EFB0BF9A28
:105790000145D254B259925A6254F2504259225A97
:1057A000216182803C41A1DFB707009003C74722F7
:1057B000B7070218A385E7000F00F00F01A0B2475A
:1057C000B1D3B707009003C74722B7070218A385D4
:1057D000E7000F00F00F01A02285EFF05F85EFF0EA
:1057E0008F90EFB05F911C5CD5D3EFB0DF9479B7A9
:1057F000EFB07F94B24513054402EFF0EFAB228582
:10580000EFF0FF82EFF02F8E35F9F32740F19DE79F
:10581000371703188327C7FF93E71700232EF7FED8
:105820000F00F00FA1BFB707009003C74722B707CB
:105830000218A385E7000F00F00F01A03717031827
:105840008A07BA97054798C30F00F00F05BFD254D7
:10585000B259925A304001CE4C44B2954CC41C44CB
:1058600063E4F5000C404CC45285EF1030157D19EF
:10587000232C24031C4889E7EFB0FF8B054529BF83
:1058800013050401EFF06FAB65D9F32740F181EF09
:10589000371703188327C7FF93E71700232EF7FE58
:1058A0000F00F00FD1BF371703188A07BA970547C3
:1058B00098C30F00F00FC9B7397106DE22DC26DA73
:1058C0004AD84ED652D456D22EC649CD3C412A840F
:1058D00081CFB707009003C74722B7070218A385F7
:1058E000E7000F00F00F01A0EFF0CFBAAA8451C576
:1058F000814A8144930981017D59130AC100EFB0A7
:105900008FFF1C5C63940716B24763840714D5C8E5
:10591000EFB07F82EFE01FC7EFB0EFFD8347440495
:10592000E207E187639427012302040483475404B8
:10593000E207E18763942701A3020404EFB0AFFFFD
:10594000D2854E85EFF0AFAA31E5EFB0CFFA1C5CFF
:10595000C9C3EFB04FFE2285EFF06FEDEFE0BFF867
:10596000854471BFB707009003C74722B7070218E5
:10597000A385E7000F00F00F01A0B247C9CBB7071E
:10598000009003C74722B7070218A385E7000F005E
:10599000F00F01A02285EFF08FE9EFE0DFF4EFB028
:1059A0008FF51C5C9DE3EFB00FF963940A06014587
:1059B000F2506254D2544259B259225A925A216139
:1059C00082804E85EFF04FA1A1B7EFB0CFF68544AE
:1059D0003DB7EFB04FF61C40A5C7B24513054402D2
:1059E000EFF08F8D2285EFF08FE4EFE0DFEF2DF900
:1059F000F32740F18DEF371703188327C7FF93E78D
:105A00001700232EF7FE0F00F00F8544CDBD814A0D
:105A1000D5B5EFB04FEE4C5089C51C589C43A145FD
:105A20009D8D0844EFF00FBDEFB0EFF049B7371789
:105A300003188A07BA97054798C30F00F00FF1B70C
:105A4000EFB06FEB0844EFF0AFA6AA8AEFB0AFEE6D
:105A500069B7E38B0AFCB707009003C74722B70773
:105A60000218A385E7000F00F00F01A0FD171CDC52
:105A70001C4099C71C4889EBEFB0EFEB05450DBF03
:105A8000EFF0AFC308C4FDB713050401EFF0EF8AD0
:105A900065D5F32740F181EF371703188327C7FF38
:105AA00093E71700232EF7FE0F00F00FF1B737171B
:105AB00003188A07BA97054798C30F00F00F6DBF08
:105AC000411122C426C24AC02A8406C6AE84328945
:105AD000EFB06FE283474404E207E1877D576394A8
:105AE000E7002302040483475404E207E1877D575B
:105AF0006394E700A3020404EFB0EFE31C5C89CBDE
:105B000022852244B2409244024941016FF02FD2D3
